:020000040800F2
:1000000000000120B1010008A30E0008B10E000895
:10001000BF0E0008CD0E0008DB0E0008950E00088C
:10002000950E0008950E0008950E0008E90E0008D0
:10003000590F0008950E0008670F0008750F00089B
:10004000830F0008910F00089F0F0008AD0F0008F4
:10005000BB0F0008C90F0008D70F0008E50F000804
:10006000F30F0008011000080F1000081D10000811
:100070002B10000839100008471000085510000820
:1000800063100008711000087F1000088D10000830
:100090009B100008A9100008B7100008C510000840
:1000A000D3100008E1100008EF100008FD10000850
:1000B0000B1100081911000827110008351100085C
:1000C00043110008511100085F1100086D1100086C
:1000D0007B1100088911000897110008A51100087C
:1000E000B3110008C1110008950E0008950E000814
:1000F000950E0008950E0008950E0008950E000854
:10010000950E0008CF110008950E0008DD110008BB
:10011000EB110008950E0008F911000807120008FD
:100120001512000823120008311200083F120008BF
:100130004D120008950E0008950E0008950E000857
:100140005B12000869120008771200088512000887
:1001500093120008A1120008AF120008BD12000897
:10016000CB120008D9120008E7120008950E00080B
:10017000F512000803130008950E0008950E0008FC
:10018000111300081F1300082D130008950E000816
:10019000950E0008950E0008950E0008950E0008B3
:1001A000950E0008950E0008950E0008950E0008A3
:1001B00080B582B000AF784B3B6004E03B681A1D0D
:1001C0003A6000221A603B68744A9342F6D3744B3B
:1001D0007B60744B3B6007E07A68131D7B603B6873
:1001E000191D396012681A603B686F4A9342F3D355
:1001F0006E4B05221A7000DF6D4B40F204721A60DC
:1002000000BF00BF00BF00BF00BF00BF00BF00BFF6
:1002100000BF00BF00BF00BF664B00221A60664BE4
:1002200040F27F721A60654B4FF0FF321A60634BE9
:1002300000221A60624B4FF0FF321A60604B0022BE
:100240001A60604B4FF0FF321A605E4B00221A605A
:100250005D4B4FF0FF321A605B4B00221A605B4B24
:100260004FF0FF321A60594B00221A60584B4FF082
:10027000FF321A60564B00221A6000BF00BF00BF59
:1002800000BF00BF00BF00BF00BF00BF00BF00BF76
:1002900000BF00BF00BF00BF00BF00BF00BF00BF66
:1002A00000BF00BF00BF00BF00BF00BF00BF00BF56
:1002B00000BF00BF00BF00BF00BF00BF00BF00BF46
:1002C00000BF00BF00BF00BF00BF00BF00BF00BF36
:1002D00000BF00BF00BF00BF00BF3E4B3E4A1A60D8
:1002E0003E4B3D4A1A6000BF00BF00BF00BF00BFC9
:1002F00000BF00BF00BF00BF00BF00BF00BF384B42
:100300001B68374A43F44073136000BF00BF00BF4F
:1003100000BF00BF00BF00BF00BF00BF00BF00BFE5
:1003200000BF304B304A1A60304B314A1A6010E03F
:100330002E4B1B68013B2D4A136000BF00BF00BF5E
:1003400000BF00BF00BF00BF00BF00BF00BF00BFB5
:1003500000BF244B1B6803F00203002B03D1234B87
:100360001B68002BE4D1214B1B68002B06D0214BCE
:100370001B6843F001031F4A136005E01D4B1B6817
:1003800023F001031B4A13601B4B69221A60174BB1
:10039000174A1A6043E000BF0000002080000020E0
:1003A0005815000800000020000000200C0000206C
:1003B0000020024018100240201002403810024075
:1003C0003C10024040100240281002402C10024015
:1003D0003010024058100240000400107810024013
:1003E00000700040901002401D81000300000020BA
:1003F000A08601000400002000100240804B1B6812
:10040000013B7F4A136000BF00BF00BF00BF00BFB9
:1004100000BF00BF00BF00BF00BF00BF00BF794BDF
:100420001B6803F00203022B03D0754B1B68002BE3
:10043000E4D1734B1B68002B06D0734B1B6843F051
:100440000203714A136005E06F4B1B6823F002033F
:100450006D4A13606B4B1B686A4A43F06D0313606F
:1004600000BF00BF00BF00BF00BF00BF00BF00BF94
:1004700000BF00BF00BF00BF00BF00BF00BF00BF84
:1004800000BF00BF00BF00BF00BF00BF00BF00BF74
:1004900000BF00BF00BF00BF00BF00BF00BF00BF64
:1004A00000BF00BF00BF00BF00BF00BF00BF00BF54
:1004B00000BF00BF00BF00BF00BF00BF00BF00BF44
:1004C0004F4B524A1A6010E04D4B1B68013B4C4A9F
:1004D000136000BF00BF00BF00BF00BF00BF00BF70
:1004E00000BF00BF00BF00BF00BF464B1B6803F04A
:1004F0000203022B03D0424B1B68002BE4D1404B7C
:100500001B68002B06D0404B1B6843F004033E4A97
:10051000136005E03C4B1B6823F004033A4A136068
:100520003B4B3C4A1A6000BF00BF00BF00BF00BF8A
:1005300000BF00BF00BF00BF00BF00BF00BF00BFC3
:1005400000BF00BF00BF00BF00BF00BF00BF00BFB3
:1005500000BF00BF00BF00BF00BF00BF00BF00BFA3
:1005600000BF00BF00BF00BF00BF00BF00BF00BF93
:1005700000BF00BF00BF00BF00BF00BF00BF00BF83
:1005800000BF00BF00BF1F4B1B681E4A43F08073B3
:1005900043F06D03136000BF00BF00BF00BF00BF8A
:1005A00000BF00BF00BF00BF00BF00BF00BF00BF53
:1005B00000BF00BF00BF00BF00BF00BF00BF00BF43
:1005C00000BF00BF00BF00BF00BF00BF00BF00BF33
:1005D00000BF00BF00BF00BF00BF00BF00BF00BF23
:1005E00000BF00BF00BF00BF00BF00BF00BF00BF13
:1005F00000BF00BF00BF024B044A1A601DE000BFED
:10060000000000200010024004000020A08601002D
:100610000C100240014850032C4B1B68013B2B4A35
:10062000136000BF00BF00BF00BF00BF00BF00BF1E
:1006300000BF00BF00BF00BF00BF254B1A68254B9D
:100640001340244A934203D0204B1B68002BE3D174
:100650001E4B1B68002B06D01F4B1B6843F0080382
:100660001D4A136005E01C4B1B6823F008031A4A5F
:1006700013601A4B03221A60144B194A1A6010E0D7
:10068000124B1B68013B114A136000BF00BF00BF43
:1006900000BF00BF00BF00BF00BF00BF00BF00BF62
:1006A00000BF0E4B1B6803F00C030C2B03D0074B51
:1006B0001B68002BE4D1054B1B68002B12D0064BA6
:1006C0001B6843F01003044A136011E0000000208F
:1006D0000010024002000002040000200810024046
:1006E000A0860100884B1B6823F01003864A136024
:1006F000864B00221A60864B4FF480721A60854B3D
:100700004FF440721A60844B844A1A60844B834AC7
:100710001A60844B00221A60834B00221A60834BBC
:10072000834A1A60834B824A1A60834B00221A6004
:10073000824B00221A60824B01221A60814B0122F7
:100740001A6000BF00BF00BF00BF00BF00BF00BFF6
:1007500000BF00BF00BF00BF00BF00BF00BF00BFA1
:1007600000BF00BF00BF00BF00BF00BF00BF00BF91
:1007700000BF00BF00BF00BF00BF00BF00BF00BF81
:1007800000BF00BF00BF00BF00BF00BF00BF00BF71
:1007900000BF00BF00BF00BF00BF00BF00BF00BF61
:1007A00000BF00BF00BF00BF00BF00BF00BF00BF51
:1007B00000BF00BF00BF00BF00BF00BF00BF00BF41
:1007C00000BF00BF00BF00BF00BF00BF00BF00BF31
:1007D00000BF00BF00BF00BF00BF00BF00BF00BF21
:1007E00000BF00BF00BF00BF00BF00BF00BF00BF11
:1007F00000BF00BF00BF00BF00BF00BF00BF00BF01
:1008000000BF00BF00BF00BF00BF4FF090434FF0DC
:1008100055321A604C4B00221A604C4B4FF0FF329D
:100820001A604B4B00221A604A4B00221A604A4B56
:1008300000221A60494B00221A60494B00221A60BC
:10084000484B00221A60484B05221A60474B002291
:100850001A60474B4FF0FF321A60464B00221A6075
:10086000454B00221A60454B00221A60444B00227F
:100870001A60444B00221A60434B00221A6000BFEA
:1008800000BF00BF00BF00BF00BF00BF00BF00BF70
:1008900000BF00BF00BF00BF00BF00BF00BF00BF60
:1008A00000BF00BF00BF00BF00BF00BF00BF00BF50
:1008B00000BF00BF00BF00BF00BF00BF00BF00BF40
:1008C00000BF00BF00BF00BF00BF00BF00BF00BF30
:1008D00000BF00BF00BF00BF00BF00BF00BF2B4B69
:1008E0004FF080421A602A4B00221A60294B4FF0C9
:1008F000FF321A60284B00221A60284B00221A602F
:10090000274B00221A604DE00400002088100240AE
:1009100048100240681002404C10024007000400DA
:100920006C100240501002407010024058100240FB
:1009300000082010781002405C1002407C10024039
:100940006010024080100240040000480800004887
:100950000C00004814000048180000481C00004823
:100960002000004824000048000400480404004817
:10097000080400480C040048140400481804004807
:100980001C040048200400482404004800080048D3
:1009900004080048080800480C08004814080048EB
:1009A000180800484F4B00221A604F4B00221A6073
:1009B0004E4B00221A6000BF00BF00BF00BF00BF47
:1009C00000BF00BF00BF00BF00BF00BF00BF00BF2F
:1009D00000BF00BF00BF00BF00BF00BF00BF00BF1F
:1009E00000BF00BF00BF00BF00BF00BF00BF00BF0F
:1009F00000BF00BF00BF00BF00BF00BF00BF00BFFF
:100A000000BF00BF00BF00BF00BF00BF00BF00BFEE
:100A100000BF00BF00BFDFF8E400016841F47001CF
:100A20000160BFF34F8FBFF36F8F314B05221A6008
:100A3000304B1B6843F020032E4A13602D4B1B687C
:100A400003F00103002B02D02B4B01221A60294B2B
:100A50001B6803F00203002B02D0274B02221A600E
:100A6000244B1B6803F00403002B02D0224B04220A
:100A70001A60204B1B6803F00803002B02D01E4BAA
:100A800008221A601B4B1B6803F01003002B02D0D6
:100A9000194B10221A60174B1B6803F02003002B20
:100AA00002D0154B20221A6000BF00BF00BF00BF5C
:100AB00000BF00BF00BF00BF00BF00BF00BF00BF3E
:100AC00000BF00BF00BF00BF00BF00BF00BF00BF2E
:100AD00000BF00BF00BF00BF00F0F7FC00BF083739
:100AE000BD4680BD1C080048200800482408004876
:100AF00030000140040000201800004888ED00E0AC
:100B000080B400AF0C4B4FF400721A6000BF00BFFE
:100B100000BF00BF00BF00BF00BF00BF00BF00BFDD
:100B200000BF00BF044B4FF000721A6000BFBD460B
:100B30005DF8047B704700BF1800004880B485B0A2
:100B400000AF0346FB7180237B732B4B4FF4800275
:100B50001A60294B4FF400021A600023FB812AE03F
:100B6000FA797B7B1340DBB2002B03D0224B40226F
:100B70001A6003E0204B4FF480021A6000BF00BFF0
:100B800000BF00BF1C4B80221A6000BF00BF00BF27
:100B900000BF194B4FF400021A6000BF00BF00BF36
:100BA00000BF154B4FF480021A607B7B5B087B73A0
:100BB000FB890133FB81FB89072BD1D900BF00BF23
:100BC00000BF00BF00BF00BF00BF00BF00BF00BF2D
:100BD00000BF00BF00BF00BF00BF00BF00BF00BF1D
:100BE00000BF00BF00BF00BF00BF00BF00BF143781
:100BF000BD465DF8047B70471800004880B485B09E
:100C000000AF0346FB804FF40043BB812B4B4FF4F6
:100C100080021A60294B4FF400021A600023FB8106
:100C20002AE0FA88BB8913409BB2002B03D0234BE8
:100C300040221A6003E0214B4FF480021A6000BF8B
:100C400000BF00BF00BF1D4B80221A6000BF00BF65
:100C500000BF00BF194B4FF400021A6000BF00BF75
:100C600000BF00BF154B4FF480021A60BB895B08C0
:100C7000BB81FB890133FB81FB890F2BD1D900BFDD
:100C800000BF00BF00BF00BF00BF00BF00BF00BF6C
:100C900000BF00BF00BF00BF00BF00BF00BF00BF5C
:100CA00000BF00BF00BF00BF00BF00BF00BF00BF4C
:100CB0001437BD465DF8047B704700BF180000483C
:100CC00080B485B000AF78604FF00043BB602B4B21
:100CD0004FF480021A60294B4FF400021A6000237F
:100CE000FB8129E07A68BB681340002B03D0234BBB
:100CF00040221A6003E0214B4FF480021A6000BFCB
:100D000000BF00BF00BF1D4B80221A6000BF00BFA4
:100D100000BF00BF194B4FF400021A6000BF00BFB4
:100D200000BF00BF154B4FF480021A60BB685B0820
:100D3000BB60FB890133FB81FB891F2BD2D900BF2C
:100D400000BF00BF00BF00BF00BF00BF00BF00BFAB
:100D500000BF00BF00BF00BF00BF00BF00BF00BF9B
:100D600000BF00BF00BF00BF00BF00BF00BF00BF8B
:100D70001437BD465DF8047B704700BF180000487B
:100D800080B483B000AF78607B6803F01F0207492E
:100D90007B685B09012000FA02F241F8232000BFC2
:100DA0000C37BD465DF8047B704700BF00E100E0F2
:100DB00080B483B000AF78607B6803F01F020749FE
:100DC0007B685B09012000FA02F2203341F82320FE
:100DD00000BF0C37BD465DF8047B704700E100E0C2
:100DE00080B483B000AF78607B6803F01F020749CE
:100DF0007B685B09012000FA02F2603341F823208E
:100E000000BF0C37BD465DF8047B704700E100E091
:100E100080B483B000AF786039603B68DBB2074ACA
:100E20001B01D9B27B68134403F540730A461A705C
:100E300000BF0C37BD465DF8047B704700E100E061
:100E400080B582B000AF72B60F4B104A1A60002313
:100E5000FB8010E0FB880E4AD35C7B717B7903F04A
:100E60000F033B713A79FB881146184600F0A1FA4E
:100E7000FB880133FB80FB88602BEBD962B600BF97
:100E80000837BD4680BD00BF0CED00E00000FA054C
:100E9000F414000880B400AF00BFBD465DF8047BC9
:100EA000704780B400AF00BFBD465DF8047B70475B
:100EB00080B400AF00BFBD465DF8047B704780B4CE
:100EC00000AF00BFBD465DF8047B704780B400AF43
:100ED00000BFBD465DF8047B704780B400AF00BF23
:100EE000BD465DF8047B704780B400AF194B1B789A
:100EF0000F2B28D801A252F823F000BF470F00089B
:100F0000470F0008470F0008470F0008470F000869
:100F10003D0F0008470F0008470F0008470F000863
:100F2000470F0008470F0008470F0008470F000849
:100F3000470F0008470F0008470F00084FF0000058
:100F400080F3148800E000BF00BFBD465DF8047B5D
:100F5000704700BF0C00002080B400AF00BFBD464A
:100F60005DF8047B704780B400AF00BFBD465DF8FC
:100F7000047B704780B400AF00BFBD465DF8047BC2
:100F8000704780B400AF00BFBD465DF8047B70477A
:100F900080B400AF00BFBD465DF8047B704780B4ED
:100FA00000AF00BFBD465DF8047B704780B400AF62
:100FB00000BFBD465DF8047B704780B400AF00BF42
:100FC000BD465DF8047B704780B400AF00BFBD46EE
:100FD0005DF8047B704780B400AF00BFBD465DF88C
:100FE000047B704780B400AF00BFBD465DF8047B52
:100FF000704780B400AF00BFBD465DF8047B70470A
:1010000080B400AF00BFBD465DF8047B704780B47C
:1010100000AF00BFBD465DF8047B704780B400AFF1
:1010200000BFBD465DF8047B704780B400AF00BFD1
:10103000BD465DF8047B704780B400AF00BFBD467D
:101040005DF8047B704780B400AF00BFBD465DF81B
:10105000047B704780B400AF00BFBD465DF8047BE1
:10106000704780B400AF00BFBD465DF8047B704799
:1010700080B400AF00BFBD465DF8047B704780B40C
:1010800000AF00BFBD465DF8047B704780B400AF81
:1010900000BFBD465DF8047B704780B400AF00BF61
:1010A000BD465DF8047B704780B400AF00BFBD460D
:1010B0005DF8047B704780B400AF00BFBD465DF8AB
:1010C000047B704780B400AF00BFBD465DF8047B71
:1010D000704780B400AF00BFBD465DF8047B704729
:1010E00080B400AF00BFBD465DF8047B704780B49C
:1010F00000AF00BFBD465DF8047B704780B400AF11
:1011000000BFBD465DF8047B704780B400AF00BFF0
:10111000BD465DF8047B704780B400AF00BFBD469C
:101120005DF8047B704780B400AF00BFBD465DF83A
:10113000047B704780B400AF00BFBD465DF8047B00
:10114000704780B400AF00BFBD465DF8047B7047B8
:1011500080B400AF00BFBD465DF8047B704780B42B
:1011600000AF00BFBD465DF8047B704780B400AFA0
:1011700000BFBD465DF8047B704780B400AF00BF80
:10118000BD465DF8047B704780B400AF00BFBD462C
:101190005DF8047B704780B400AF00BFBD465DF8CA
:1011A000047B704780B400AF00BFBD465DF8047B90
:1011B000704780B400AF00BFBD465DF8047B704748
:1011C00080B400AF00BFBD465DF8047B704780B4BB
:1011D00000AF00BFBD465DF8047B704780B400AF30
:1011E00000BFBD465DF8047B704780B400AF00BF10
:1011F000BD465DF8047B704780B400AF00BFBD46BC
:101200005DF8047B704780B400AF00BFBD465DF859
:10121000047B704780B400AF00BFBD465DF8047B1F
:10122000704780B400AF00BFBD465DF8047B7047D7
:1012300080B400AF00BFBD465DF8047B704780B44A
:1012400000AF00BFBD465DF8047B704780B400AFBF
:1012500000BFBD465DF8047B704780B400AF00BF9F
:10126000BD465DF8047B704780B400AF00BFBD464B
:101270005DF8047B704780B400AF00BFBD465DF8E9
:10128000047B704780B400AF00BFBD465DF8047BAF
:10129000704780B400AF00BFBD465DF8047B704767
:1012A00080B400AF00BFBD465DF8047B704780B4DA
:1012B00000AF00BFBD465DF8047B704780B400AF4F
:1012C00000BFBD465DF8047B704780B400AF00BF2F
:1012D000BD465DF8047B704780B400AF00BFBD46DB
:1012E0005DF8047B704780B400AF00BFBD465DF879
:1012F000047B704780B400AF00BFBD465DF8047B3F
:10130000704780B400AF00BFBD465DF8047B7047F6
:1013100080B400AF00BFBD465DF8047B704780B469
:1013200000AF00BFBD465DF8047B704780B400AFDE
:1013300000BFBD465DF8047B704780B582B000AF4A
:101340000346FB8072B6FB881846FFF719FD62B6AC
:1013500000BF0837BD4680BD80B582B000AF0346F0
:10136000FB8072B6FB881846FFF70AFD62B600BF25
:101370000837BD4680BD80B582B000AF0346FB8014
:1013800072B6FB881846FFF713FD62B600BF083738
:10139000BD4680BD80B582B000AF0346FB8072B60B
:1013A000FB881846FFF71CFD62B600BF0837BD4634
:1013B00080BD80B582B000AF03460A46FB8013466D
:1013C0007B71FB887A7911461846FFF721FD00BF33
:1013D0000837BD4680BD00BF80B485B000AF7860DF
:1013E0000023FB6066E000BF00BF00BF00BF00BF7E
:1013F00000BF00BF00BF00BF00BF00BF00BF00BFF5
:1014000000BF00BF00BF00BF00BF00BF00BF00BFE4
:1014100000BF00BF00BF00BF00BF00BF00BF00BFD4
:1014200000BF00BF00BF00BF00BF00BF00BF00BFC4
:1014300000BF00BF00BF00BF00BF00BF00BF00BFB4
:1014400000BF00BF00BF00BF00BF00BF00BF00BFA4
:1014500000BF00BF00BF00BF00BF00BF00BF00BF94
:1014600000BF00BF00BF00BF00BF00BF00BF00BF84
:1014700000BF00BF00BF00BF00BF00BF00BF00BF74
:1014800000BF00BF00BF00BF00BF00BF00BF00BF64
:1014900000BF00BF00BF00BF00BF00BF00BF00BF54
:1014A00000BF00BF00BF00BF00BF00BF00BFFB68A0
:1014B0000133FB60FB687A689A4294D800BF00BF92
:1014C0001437BD465DF8047B704780B500AF074B0D
:1014D00001221A600648FFF77FFF044B4FF4803269
:1014E0001A600348FFF778FFF1E700BF18040048CF
:1014F000A08601000F0F0F0F0F0F0F0F0F0F0F0F11
:101500000F0F0F0F0F0F0F0F0F0F0F0F0F0F0F0FEB
:101510000F0F0F0F0F0F0F0F0F0F0F0F0F0F0F0FDB
:101520000F0F0F0F0F0F0F0F0F0F0F0F0F0F0F0FCB
:101530000F0F0F0F0F0F0F0F0F0F0F0F0F0F0F0FBB
:101540000F0F0F0F0F0F0F0F0F0F0F0F0F0F0F0FAB
:081550000F0F0F0F0F0F0F0F1B
:04000005080001B03E
:00000001FF
