:020000040800F2
:1000000000000120010200083F2E00084D2E0008CC
:100010005B2E0008692E0008772E0008312E00089C
:10002000312E0008312E0008312E0008852E0008E0
:10003000F52E0008312E0008032F0008112F0008AC
:100040001D2F00082B2F0008392F0008472F00080C
:10005000552F0008632F0008712F00087F2F00081C
:100060008D2F00089B2F0008A92F0008B72F00082C
:10007000C52F0008D32F0008E12F0008EF2F00083C
:10008000FD2F00080B300008193000082730000849
:100090003530000843300008513000085F30000858
:1000A0006D3000087B300008893000089730000868
:1000B000A5300008B3300008C1300008CF30000878
:1000C000DD300008EB300008F93000080731000887
:1000D00015310008351A000891270008233100085F
:1000E000313100083F310008312E0008312E000860
:1000F000312E0008312E0008312E0008312E000864
:10010000312E00084D310008312E00085B31000807
:1001100069310008312E0008773100088531000868
:1001200093310008A1310008AF310008BD3100084B
:10013000CB310008312E0008312E0008312E000886
:10014000D9310008E7310008F53100080332000812
:10015000113200081F3200082D3200083B3200081F
:10016000493200085732000865320008312E000875
:100170007332000881320008312E0008312E000849
:100180008F3200089D320008AB320008312E000883
:10019000312E0008312E0008312E0008312E0008C3
:1001A000312E0008312E0008312E0008312E0008B3
:0101B000004E
:0101B400004A
:0101B8000046
:1001C000000000000000304300000000000030C3C9
:0801D0000000004B000000CB11
:0401D80008000020FB
:1002000080B582B000AF784B3B6004E03B681A1DBC
:100210003A6000221A603B68744A9342F6D3744BEA
:100220007B60744B3B6007E07A68131D7B603B6822
:10023000191D396012681A603B686F4A9342F3D304
:100240006E4B05221A7000DF6D4B40F204721A608B
:1002500000BF00BF00BF00BF00BF00BF00BF00BFA6
:1002600000BF00BF00BF00BF664B00221A60664B94
:1002700040F27F721A60654B4FF0FF321A60634B99
:1002800000221A60624B4FF0FF321A60604B00226E
:100290001A60604B4FF0FF321A605E4B00221A600A
:1002A0005D4B4FF0FF321A605B4B00221A605B4BD4
:1002B0004FF0FF321A60594B00221A60584B4FF032
:1002C000FF321A60564B00221A6000BF00BF00BF09
:1002D00000BF00BF00BF00BF00BF00BF00BF00BF26
:1002E00000BF00BF00BF00BF00BF00BF00BF00BF16
:1002F00000BF00BF00BF00BF00BF00BF00BF00BF06
:1003000000BF00BF00BF00BF00BF00BF00BF00BFF5
:1003100000BF00BF00BF00BF00BF00BF00BF00BFE5
:1003200000BF00BF00BF00BF00BF3E4B3E4A1A6087
:100330003E4B3D4A1A6000BF00BF00BF00BF00BF78
:1003400000BF00BF00BF00BF00BF00BF00BF384BF1
:100350001B68374A43F44073136000BF00BF00BFFF
:1003600000BF00BF00BF00BF00BF00BF00BF00BF95
:1003700000BF304B304A1A60304B314A1A6010E0EF
:100380002E4B1B68013B2D4A136000BF00BF00BF0E
:1003900000BF00BF00BF00BF00BF00BF00BF00BF65
:1003A00000BF244B1B6803F00203002B03D1234B37
:1003B0001B68002BE4D1214B1B68002B06D0214B7E
:1003C0001B6843F001031F4A136005E01D4B1B68C7
:1003D00023F001031B4A13601B4B69221A60174B61
:1003E000174A1A6043E000BF300400204049002053
:1003F000946700080000002000000020580400203E
:100400000020024018100240201002403810024024
:100410003C10024040100240281002402C100240C4
:1004200030100240581002400004001078100240C2
:1004300000700040901002401D8100033004002035
:10044000A08601003404002000100240804B1B688D
:10045000013B7F4A136000BF00BF00BF00BF00BF69
:1004600000BF00BF00BF00BF00BF00BF00BF794B8F
:100470001B6803F00203022B03D0754B1B68002B93
:10048000E4D1734B1B68002B06D0734B1B6843F001
:100490000203714A136005E06F4B1B6823F00203EF
:1004A0006D4A13606B4B1B686A4A43F06D0313601F
:1004B00000BF00BF00BF00BF00BF00BF00BF00BF44
:1004C00000BF00BF00BF00BF00BF00BF00BF00BF34
:1004D00000BF00BF00BF00BF00BF00BF00BF00BF24
:1004E00000BF00BF00BF00BF00BF00BF00BF00BF14
:1004F00000BF00BF00BF00BF00BF00BF00BF00BF04
:1005000000BF00BF00BF00BF00BF00BF00BF00BFF3
:100510004F4B524A1A6010E04D4B1B68013B4C4A4E
:10052000136000BF00BF00BF00BF00BF00BF00BF1F
:1005300000BF00BF00BF00BF00BF464B1B6803F0F9
:100540000203022B03D0424B1B68002BE4D1404B2B
:100550001B68002B06D0404B1B6843F004033E4A47
:10056000136005E03C4B1B6823F004033A4A136018
:100570003B4B3C4A1A6000BF00BF00BF00BF00BF3A
:1005800000BF00BF00BF00BF00BF00BF00BF00BF73
:1005900000BF00BF00BF00BF00BF00BF00BF00BF63
:1005A00000BF00BF00BF00BF00BF00BF00BF00BF53
:1005B00000BF00BF00BF00BF00BF00BF00BF00BF43
:1005C00000BF00BF00BF00BF00BF00BF00BF00BF33
:1005D00000BF00BF00BF1F4B1B681E4A43F0807363
:1005E00043F06D03136000BF00BF00BF00BF00BF3A
:1005F00000BF00BF00BF00BF00BF00BF00BF00BF03
:1006000000BF00BF00BF00BF00BF00BF00BF00BFF2
:1006100000BF00BF00BF00BF00BF00BF00BF00BFE2
:1006200000BF00BF00BF00BF00BF00BF00BF00BFD2
:1006300000BF00BF00BF00BF00BF00BF00BF00BFC2
:1006400000BF00BF00BF024B044A1A601DE000BF9C
:10065000300400200010024034040020A086010075
:100660000C100240014850032C4B1B68013B2B4AE5
:10067000136000BF00BF00BF00BF00BF00BF00BFCE
:1006800000BF00BF00BF00BF00BF254B1A68254B4D
:100690001340244A934203D0204B1B68002BE3D124
:1006A0001E4B1B68002B06D01F4B1B6843F0080332
:1006B0001D4A136005E01C4B1B6823F008031A4A0F
:1006C00013601A4B03221A60144B194A1A6010E087
:1006D000124B1B68013B114A136000BF00BF00BFF3
:1006E00000BF00BF00BF00BF00BF00BF00BF00BF12
:1006F00000BF0E4B1B6803F00C030C2B03D0074B01
:100700001B68002BE4D1054B1B68002B12D0064B55
:100710001B6843F01003044A136011E0300400200A
:1007200000100240020000023404002008100240C1
:10073000A0860100884B1B6823F01003864A1360D3
:10074000864B00221A60864B4FF480721A60854BEC
:100750004FF440721A60844B844A1A60844B834A77
:100760001A60844B00221A60834B00221A60834B6C
:10077000834A1A60834B824A1A60834B00221A60B4
:10078000824B00221A60824B01221A60814B0122A7
:100790001A6000BF00BF00BF00BF00BF00BF00BFA6
:1007A00000BF00BF00BF00BF00BF00BF00BF00BF51
:1007B00000BF00BF00BF00BF00BF00BF00BF00BF41
:1007C00000BF00BF00BF00BF00BF00BF00BF00BF31
:1007D00000BF00BF00BF00BF00BF00BF00BF00BF21
:1007E00000BF00BF00BF00BF00BF00BF00BF00BF11
:1007F00000BF00BF00BF00BF00BF00BF00BF00BF01
:1008000000BF00BF00BF00BF00BF00BF00BF00BFF0
:1008100000BF00BF00BF00BF00BF00BF00BF00BFE0
:1008200000BF00BF00BF00BF00BF00BF00BF00BFD0
:1008300000BF00BF00BF00BF00BF00BF00BF00BFC0
:1008400000BF00BF00BF00BF00BF00BF00BF00BFB0
:1008500000BF00BF00BF00BF00BF4FF090434FF08C
:1008600055321A604C4B00221A604C4B4FF0FF324D
:100870001A604B4B00221A604A4B00221A604A4B06
:1008800000221A60494B00221A60494B00221A606C
:10089000484B00221A60484B05221A60474B002241
:1008A0001A60474B4FF0FF321A60464B00221A6025
:1008B000454B00221A60454B00221A60444B00222F
:1008C0001A60444B00221A60434B00221A6000BF9A
:1008D00000BF00BF00BF00BF00BF00BF00BF00BF20
:1008E00000BF00BF00BF00BF00BF00BF00BF00BF10
:1008F00000BF00BF00BF00BF00BF00BF00BF00BF00
:1009000000BF00BF00BF00BF00BF00BF00BF00BFEF
:1009100000BF00BF00BF00BF00BF00BF00BF00BFDF
:1009200000BF00BF00BF00BF00BF00BF00BF2B4B18
:100930004FF080421A602A4B00221A60294B4FF078
:10094000FF321A60284B00221A60284B00221A60DE
:10095000274B00221A604DE034040020881002402A
:1009600048100240681002404C100240070004008A
:100970006C100240501002407010024058100240AB
:1009800000082010781002405C1002407C100240E9
:100990006010024080100240040000480800004837
:1009A0000C00004814000048180000481C000048D3
:1009B00020000048240000480004004804040048C7
:1009C000080400480C0400481404004818040048B7
:1009D0001C04004820040048240400480008004883
:1009E00004080048080800480C080048140800489B
:1009F00018080048544B00221A60544B00221A6019
:100A0000534B00221A6000BF00BF00BF00BF00BFF1
:100A100000BF00BF00BF00BF00BF00BF00BF00BFDE
:100A200000BF00BF00BF00BF00BF00BF00BF00BFCE
:100A300000BF00BF00BF00BF00BF00BF00BF00BFBE
:100A400000BF00BF00BF00BF00BF00BF00BF00BFAE
:100A500000BF00BF00BF00BF00BF00BF00BF00BF9E
:100A600000BF00BF00BFDFF80401016841F470015E
:100A70000160BFF34F8FBFF36F8F364B05221A60B3
:100A8000354B40F283321A60344B00221A60344BEB
:100A900007221A60334B1B6843F02003314A13606E
:100AA000304B1B6803F00103002B02D02E4B0122B8
:100AB0001A602C4B1B6803F00203002B02D02A4B58
:100AC00002221A60274B1B6803F00403002B02D09C
:100AD000254B04221A60234B1B6803F00803002BEC
:100AE00002D0214B08221A601E4B1B6803F0100332
:100AF000002B02D01C4B10221A601A4B1B6803F00B
:100B00002003002B02D0184B20221A6000BF00BF28
:100B100000BF00BF00BF00BF00BF00BF00BF00BFDD
:100B200000BF00BF00BF00BF00BF00BF00BF00BFCD
:100B300000BF00BF00BF00BF00BF00BF02F09AFEB1
:100B400000BF0837BD4680BD1C080048200800488B
:100B5000240800483000014014E000E018E000E004
:100B600010E000E0340400201800004888ED00E0A8
:100B700080B485B000AF78600B467B807B88002B0B
:100B800012D07B88082B0FD80023FB8107E0FB895C
:100B90007A68134400221A70FB890133FB81FA89B9
:100BA0007B889A42F3D300E000BF1437BD465DF85E
:100BB000047B704780B586B000AFF860B96011461D
:100BC0001A460B46FB801346BB80B86803F078FCDE
:100BD0000346BB82F86803F073FC03467B82BA8845
:100BE0007B8A9A4201D900232EE0BA88BB8A9A42B6
:100BF00001D9002328E0BB8A002B05D07B8A002B7B
:100C000002D0BB88002B01D100231DE0FA88BB88ED
:100C10001A447B8A9A4201DD002315E00023FB82FF
:100C20000DE0FB8ABA681A44F988FB8A0B4419461E
:100C3000FB680B4412781A70FB8A0133FB82FA8A34
:100C4000BB889A42EDD3012318461837BD4680BDB4
:100C500080B586B000AF78603960786800F0B8F988
:100C600003463B82386800F0B3F90346FB8100235A
:100C7000FB8224E001237B820023BB8212E0FA8AFC
:100C8000BB8A13441A463B6813441A78BB8A7968B6
:100C90000B441B789A4202D000237B8206E0BB8A79
:100CA0000133BB82BA8A3B8A9A42E8D37B8A002B03
:100CB00002D0B7F916300AE0FB8A0133FB82FA8AC8
:100CC000F9893B8ACB1A9A42D4DB4FF0FF3318469E
:100CD0001837BD4680BD80B487B000AFF860B960FA
:100CE00011461A460B46FB801346BB800023FB824D
:100CF0000DE0FB88BA681A44FB8AF9680B44127845
:100D00001A70FB880133FB80FB8A0133FB82FA8A6D
:100D1000BB889A42EDD300BF00BF1C37BD465DF8CB
:100D2000047B704780B584B000AF7860786803F0CA
:100D3000C7FBB860BB68002B1DD1BB6828E000234F
:100D4000FB600BE0FB6801337A681A447968FB6842
:100D50000B4412781A70FB680133FB60BB68013BDF
:100D6000FA689A42EED37A68FB68134400221A703C
:100D7000BB68013BBB607B681B78202BDFD07B68A6
:100D80001B78092BDBD0786803F09AFBB860BB684E
:100D900018461037BD4680BD80B584B000AF78607E
:100DA000786803F08DFBB860BB68002B01D1BB688D
:100DB00022E0BB68013BFB600AE07A68FB681344F1
:100DC00000221A70BB68013BBB60FB68013BFB6003
:100DD0007A68FB6813441B78202B05D07A68FB687F
:100DE00013441B78092B02D1BB68002BE5D178682E
:100DF00003F066FBB860BB6818461037BD4680BD7F
:100E000080B483B000AF0346FB80FB88DBB218469A
:100E10000C37BD465DF8047B704780B483B000AFEB
:100E20000346FB80FB881B0A9BB2DBB218460C37DB
:100E3000BD465DF8047B704780B485B000AF0346C3
:100E40000A46FB711346BB71BB79FB81FB891B0210
:100E5000FB81FB799AB2FB891343FB81FB8918461E
:100E60001437BD465DF8047B704780B485B000AF91
:100E70000346FB71FB791B09DBB21A46920013444F
:100E80005B00FB73FB7903F00F03DAB2FB7B1344C7
:100E9000FB73FB7B18461437BD465DF8047B704737
:100EA00080B485B000AF0346FB71FB79104AA2FB0A
:100EB0000323DB08DBB21B01FB73FA790C4BA3FBAA
:100EC0000213D9080B469B000B445B00D31ADBB21C
:100ED0005BB203F00F035AB297F90F3013435BB2C2
:100EE000FB73FB7B18461437BD465DF8047B7047E7
:100EF000CDCCCCCC90B585B000AF03463960FB714A
:100F0000FB7903F0F003002B00DA0F331B11FB73A6
:100F1000FB7B184600F014F803461A463B681A702B
:100F2000FB7903F00F03FB733B685C1CFB7B1846EB
:100F300000F006F80346237000BF1437BD4690BD8D
:100F400080B485B000AF0346FB710023FB73FB79CF
:100F500003F00F03FB71FB79092B02DC002B04DA91
:100F60000BE00A3B052B08D803E0FB793033FB7319
:100F700003E0FB793733FB7300BFFB7B1846143764
:100F8000BD465DF8047B704780B485B000AF7860E3
:100F900039600023FB810AE0FB893A681A44FB8927
:100FA00079680B4412781A70FB890133FB81FB8945
:100FB0003A6813441B78002BEED1FB897A681344FE
:100FC00000221A7000BF1437BD465DF8047B7047DD
:100FD00080B485B000AF78600023FB8102E0FB891C
:100FE0000133FB81FB897A6813441B78002BF6D10F
:100FF000FB8918461437BD465DF8047B704780B402
:1010000085B000AF87ED010AD7ED017AFDEEE77AF2
:1010100017EE903AFB60FB6807EE903AF8EEE77A3D
:1010200097ED017A77EE677AF0EEE77AB6EE007A1E
:10103000F4EEC77AF1EE10FA09DDFB68002B03DB52
:10104000FB680133FB6002E0FB68013BFB60FB686F
:1010500018461437BD465DF8047B7047B0B584B0C0
:1010600000AF87ED000BD7E9000103F0A5F90346B7
:10107000FB60F86802F086FE02460B46D7E90001E5
:1010800002F032FD02460B46144623F000454FF0B5
:1010900000020B4B2046294603F06EF90346002B55
:1010A00009D0FB68002B03DBFB680133FB6002E027
:1010B000FB68013BFB60FB6818461037BD46B0BDBE
:1010C0000000E03F80B483B000AF0346FB71FB79C2
:1010D000602B05D9FB797A2B02D8FB79203BFB7179
:1010E000FB7918460C37BD465DF8047B7047B0B5F8
:1010F0008AB000AF87ED010A38600023FB77002338
:10110000BB770023BB83BB8B3A68134400221A7061
:1011100097ED017AD7ED017AB4EE677AF1EE10FA25
:101120006CBF01230023DBB27B827B8A002B06D0BD
:101130003B68BB4A1068186012791A71FBE1D7ED61
:10114000017AF0EEE77A9FEDB77AF4EE477AF1EEA6
:1011500010FA01DC002308E07B6803F00043002B59
:1011600002D04FF6FF7300E001237B827B8A002BC5
:1011700006D03B68AC4A1068186012791A71DAE13F
:10118000D7ED017AF5EE407AF1EE10FA04D13B6822
:10119000A64A10681860CEE1D7ED017AF5EEC07A64
:1011A000F1EE10FA10D50123FB77D7ED017AF1EEBD
:1011B000677AC7ED017ABB8B3A6813442D221A7007
:1011C000BB8B0133BB8301E00023FB77786802F01F
:1011D000EBFD02460B4643EC102B03F065FA53EC93
:1011E000102B1046194603F00FF903467B62D7ED2A
:1011F000097AB1EE087AF4EEC77AF1EE10FA14DC4F
:10120000D7ED097AB9EE087AF4EEC77AF1EE10FA62
:101210000BD4FB7F002B0AD0D7ED097AB1EE087A08
:10122000F4EEC77AF1EE10FA01DD0123BB77BB7F44
:10123000002B31D0D7ED097AF5EEC07AF1EE10FA35
:1012400007D5D7ED097AB7EE007A77EEC77AC7ED02
:10125000097A786802F0A8FD04460D46786A02F023
:10126000A3FD02460B4643EC112B9FED6B0B03F0E5
:1012700063FA53EC102B2046294602F017FF024672
:101280000B461046194603F0BFF803467B607B6AA5
:101290003B624FF000037B62D7ED097AB7EE007A2C
:1012A000F4EEC77AF1EE10FA02D54FF000037B623C
:1012B000D7ED097AFDEEE77A17EE903AFB8269E006
:1012C000B7F9163007EE903AF8EEE77AF0EE670AD3
:1012D000B2EE040A03F002FB87ED030AD7ED037AAE
:1012E000F5EEC07AF1EE10FA3DDDD7ED037AF0EEBF
:1012F000E77A9FED4C7AF4EE477AF1EE10FA32DCA1
:1013000097ED017AD7ED037AC7EE276A16EE900AB9
:1013100002F04AFD02460B4643EC102B03F040F965
:1013200053EC102B1046194603F046F803467B8118
:10133000B7F90A3007EE903AB8EEE77AD7ED037ABC
:1013400067EE277A97ED017A77EE677AC7ED017A33
:101350007B89DAB2BB8B39680B443032D2B21A7057
:10136000BB8B0133BB83B7F91630002B0ED1D7ED01
:10137000017AF5EEC07AF1EE10FA07DDBB8B3A6820
:1013800013442E221A70BB8B0133BB83FB8A013BB3
:101390009BB2FB82D7ED017A9FED257AF4EEC77AF6
:1013A000F1EE10FA8CDCB7F91630002B88DABB7F2F
:1013B000002B00F0BA80BB8B3A68134445221A70A8
:1013C000BB8B0133BB83D7ED087AF5EEC07AF1EE23
:1013D00010FA08DDBB8B3A6813442B221A70BB8BC2
:1013E0000133BB830DE0BB8B3A6813442D221A7086
:1013F000BB8B0133BB83D7ED087AF1EE677AC7ED7B
:10140000087AD7ED087AFDEEE77A17EE903ABB82BC
:101410000023FB8235E000BF0000000000002440F4
:101420001C670008FFFF7F7F246700082C67000807
:1014300095BFD633B7F91420404B83FB02139910A4
:10144000D317C91A0B469B000B445B00D31A1BB27F
:10145000DAB2BB8B39680B443032D2B21A70BB8B14
:101460000133BB83B7F91430344A82FB0312921064
:10147000DB17D31ABB82B7F916309BB201339BB28C
:10148000FB82B7F91430002BD4DC00237B83FB8A6A
:10149000013B9BB23B833EE0B7F91A303A681344F4
:1014A0001978B7F918303A6813441A78B7F91A302E
:1014B000386803444A40D2B21A70B7F918303A6813
:1014C00013441978B7F91A303A6813441A78B7F9FF
:1014D0001830386803444A40D2B21A70B7F91A304B
:1014E0003A6813441978B7F918303A6813441A78EF
:1014F000B7F91A30386803444A40D2B21A70B7F9C3
:101500001A309BB201339BB27B83B7F918309BB280
:10151000013B9BB23B83B7F91A20B7F918309A42C6
:10152000BADBFA8ABB8B1344BB83BB8B3A68134488
:1015300000221A7000BF2837BD46B0BD67666666D8
:1015400080B485B000AF7860134B1B68002B02D1CC
:10155000114B124A1A60104B1B68FB600E4B1A6845
:101560007B6813441BB2073323F00703BB60BB68DF
:101570000A4A934203D3BB68094A934201D300232A
:1015800003E0054ABB681360FB6818461437BD4684
:101590005DF8047B704700BF3804002040490020FC
:1015A000F8FF002084B0B0B483B000AF07F1180496
:1015B00084E80F000123FB8072B6254B1B889BB289
:1015C0003E2B2ED8234B1B889BB21946224A1A2346
:1015D00003FB01F313441D4607F118040FCC2860E8
:1015E0006960AA60EB6003CC2861696123882B8362
:1015F000184B1B889BB201339AB2164B1A80154BBD
:101600001B889BB203F03F039AB2124B1A80104B17
:101610001B889BB201339AB20D4B1A800123FB80C9
:1016200001E00023FB800D4B1B68002B08D10C4B05
:101630001B68002B04D10B4B1B68002B00D162B63A
:10164000FB8818460C37BD46B0BC04B0704700BFDD
:10165000220B0020200B0020A004002000E300E06B
:1016600004E300E008E300E080B584B000AF72B6A8
:101670002C4B1B889BB2002B39D02A4B1B889BB26A
:10168000013B9AB2274B1A80274B1B889BB2194605
:10169000264A1A2303FB01F313440833D3F8063018
:1016A000FB60214B1B889BB21946204A1A2303FB7F
:1016B00001F3134403F110023B46023210685168F3
:1016C00003C3194B1B889BB201339AB2164B1A8085
:1016D000154B1B889BB203F03F039AB2124B1A8042
:1016E00062B6FB683A4692E80300984700E062B6AB
:1016F00000F066F903467B81B7F90A30002B05DA62
:1017000062B600BF00BF00BF00BF72B600BF00BF1F
:1017100000BF00BF00BF00BF00BF00BF00BF103749
:10172000BD4680BD220B00205C040020A0040020E8
:1017300080B485B000AF786072B62A4B1B889BB22C
:10174000002B1ED00023FB6018E0274AFB681A21FB
:1017500001FB03F313440833D3F806307A689A4246
:1017600009D1214AFB681A2101FB03F31344083312
:101770001E4AC3F80620FB680133FB60FB683F2B61
:10178000E3D90023FB6023E0194AFB681B011344E3
:101790001B68002B19D0164AFB681B0113445B68B9
:1017A0007A689A4211D1124AFB681B011344002245
:1017B0001A7000225A7000229A700022DA700C4AC5
:1017C000FB681B011344094A5A60FB680133FB6044
:1017D000FB68032BD8D962B600BF1437BD465DF84D
:1017E000047B7047220B0020A0040020F51700089E
:1017F0006004002080B483B000AF3B4683E8030060
:1018000000BF0C37BD465DF8047B704790B486B0CE
:1018100000AF3C4684E80F0072B600237B6124E0F1
:10182000174A7B691B0113441B68002B1AD172B63F
:101830003A6813497B691B010B441A607A681049A6
:101840007B691B010B445A600D4A7B691B011344E1
:1018500008331A4607F1080303CB1060516062B6E3
:10186000012307E07B6901337B617B69032BD7D9B7
:1018700062B6002318461837BD4690BC704700BFBB
:101880006004002080B582B000AF78603D4B00223C
:101890001A803D4B00221A803C4B00221A803C4BA0
:1018A00000221A803B4B00221A803B4B00221A80F8
:1018B0003A4B00221A603A4B00221A60394B002240
:1018C0001A60252001F025FD374A38497B68B1FBB5
:1018D000F3F31360334B00221A60314B00221A607D
:1018E0002E4B42F22C021A6000BF00BF00BF00BFA7
:1018F00000BF00BF00BF00BF00BF00BF00BF00BFF0
:1019000000BF00BF00BF00BF00BF00BF00BF00BFDF
:1019100000BF00BF00BF00BF00BF00BF00BF00BFCF
:1019200000BF00BF00BF00BF00BF00BF00BF00BFBF
:1019300000BF00BF00BF00BF00BF00BF00BF00BFAF
:1019400000BF00BF00BF00BF252001F0E2FC252042
:1019500001F0B2FC7B68164AA2FB0323DB0842F2CB
:101960001072B2FBF3F39AB2124B1A80114B1A8821
:10197000114B1A80114B00221A6000BF0837BD4678
:1019800080BD00BF681300206C130020280B0020CE
:101990006E13002078340020743300200C3801408E
:1019A00010380140143801400838014000A24A04B0
:1019B000CDCCCCCC7C440020AC4400200438014089
:1019C00080B483B000AF0023FB8072B6164B1B8837
:1019D000002B1FD0154B1B881A46154B9B5CFB80B8
:1019E000FB886FEA43436FEA5343FB800E4B1B882F
:1019F000013B9AB20C4B1A800C4B1B8801339AB2F4
:101A00000A4B1A80094B1B88C3F309039AB2074B90
:101A10001A8001E00023FB8062B6FB8818460C3771
:101A2000BD465DF8047B70476E13002074330020C0
:101A30005C0D002080B582B000AF72B6252001F0A9
:101A400068FC1A4B1B6803F00803002B04D0184BEA
:101A50001B68FB7162B625E0154B1B68FB71154BCB
:101A60001B8840F2FD32934218D8134B1B8819464D
:101A7000124AFB7953540F4B1B8801339AB20D4B1A
:101A80001A800D4B1B8801339AB20B4B1A800A4BFC
:101A90001B88C3F309039AB2074B1A80044B1B68D7
:101AA000FB7162B60837BD4680BD00BF00380140FB
:101AB000043801406E130020783400205C0D0020B3
:101AC00080B400AF72B6124B1B88002B19D0114B9B
:101AD0001B881A46104B9A5C104B1A600C4B1B88E3
:101AE000013B9AB20A4B1A800A4B1B8801339AB207
:101AF000084B1A80074B1B88C3F309039AB2054BA6
:101B00001A8062B600BFBD465DF8047B704700BF17
:101B100068130020280B0020B44400200438014042
:101B200080B483B000AF0346FB7172B6124B1B88C2
:101B300040F2FD32934218D8104B1B881946104AC8
:101B4000FB7953540D4B1B8801339AB20B4B1A800F
:101B50000A4B1B88C3F309039AB2084B1A80064B41
:101B60001B8801339AB2044B1A8062B600BF0C374F
:101B7000BD465DF8047B7047681300206C1300209D
:101B8000B444002080B58EB000AF3B600346FB71CB
:101B90000B46BB7113467B71002387F835300CE090
:101BA00097F8353007F138021344002203F8302C3F
:101BB00097F83530013387F8353097F83530272BD3
:101BC000EED901233B72E1237B726923BB72A5230B
:101BD000FB723C233B73102387F83730FB797B7310
:101BE00097F83720FB79534087F83730BB79BB73C0
:101BF00097F83720BB79534087F837307B79FB73F0
:101C000097F837207B79534087F83730082387F8D7
:101C10003430002387F833307B79002B00F082804A
:101C2000002387F8333078E097F833309B003A6828
:101C300013441B7887F8363097F8343007F13802B0
:101C4000134497F8362003F8302C97F8372097F88C
:101C50003630534087F8373097F83430013387F8FF
:101C6000343097F833309B003A6813445B7887F838
:101C7000363097F8343007F13802134497F836209D
:101C800003F8302C97F8372097F83630534087F810
:101C9000373097F83430013387F8343097F83330E1
:101CA0009B003A6813449B7887F8363097F83430B5
:101CB00007F13802134497F8362003F8302C97F8D0
:101CC000372097F83630534087F8373097F834305C
:101CD000013387F8343097F833309B003A68134467
:101CE000DB7887F8363097F8343007F13802134440
:101CF00097F8362003F8302C97F8372097F83630CD
:101D0000534087F8373097F83430013387F8343050
:101D100097F83330013387F8333097F833207B79E5
:101D20009A4281D397F8343007F13802134497F878
:101D3000372003F8302C97F83430013387F83430EB
:101D400097F8343097F83720D243D2B207F13801F0
:101D50000B4403F8302C97F83430013387F83430D3
:101D6000002387F836300EE097F8363007F1380256
:101D7000134413F8303C1846FFF7D2FE97F836307C
:101D8000013387F8363097F8362097F834309A4286
:101D9000EAD300BF00BF3837BD4680BD80B582B0F2
:101DA00000AF0023FB710120FFF7BAFEFB7983F03F
:101DB0000103FB71E120FFF7B3FEFB7983F01E0303
:101DC000DB43FB716920FFF7ABFEFB7983F069030E
:101DD000FB71A520FFF7A4FEFB7983F05A03DB43D8
:101DE000FB713C20FFF79CFEFB7983F03C03FB7109
:101DF0000120FFF795FEFB7983F00103FB710020C2
:101E0000FFF78EFE0120FFF78BFEFB7983F00103C5
:101E1000FB710020FFF784FE0020FFF781FE002009
:101E2000FFF77EFE0020FFF77BFEFB791846FFF7E9
:101E300077FEFB79DB43DBB21846FFF771FE00BF8C
:101E40000837BD4680BD80B582B000AF0023FB716E
:101E50000120FFF765FEFB7983F00103FB71E120B0
:101E6000FFF75EFEFB7983F01E03DB43FB71692005
:101E7000FFF756FEFB7983F06903FB71A520FFF79E
:101E80004FFEFB7983F05A03DB43FB713C20FFF7E5
:101E900047FEFB7983F03C03FB710220FFF740FE15
:101EA000FB7983F00203FB710020FFF739FE01206C
:101EB000FFF736FEFB7983F00103FB710020FFF78B
:101EC0002FFE0020FFF72CFE0020FFF729FE002048
:101ED000FFF726FEFB791846FFF722FEFB79DB436E
:101EE000DBB21846FFF71CFE00BF0837BD4680BDB9
:101EF00080B582B000AF0023FB710120FFF710FE18
:101F0000FB7983F00103FB71E120FFF709FEFB7908
:101F100083F01E03DB43FB716920FFF701FEFB79B1
:101F200083F06903FB71A520FFF7FAFDFB7983F0CD
:101F30005A03DB43FB713C20FFF7F2FDFB7983F092
:101F40003C03FB71F020FFF7EBFDFB7983F00F03FF
:101F5000DB43FB710020FFF7E3FD0120FFF7E0FD0D
:101F6000FB7983F00103FB710020FFF7D9FD00200E
:101F7000FFF7D6FD0020FFF7D3FD0020FFF7D0FDCF
:101F8000FB791846FFF7CCFDFB79DB43DBB2184643
:101F9000FFF7C6FD00BF0837BD4680BD80B582B0E3
:101FA00000AF0023FB710120FFF7BAFDFB7983F03E
:101FB0000103FB71E120FFF7B3FDFB7983F01E0302
:101FC000DB43FB716920FFF7ABFDFB7983F069030D
:101FD000FB71A520FFF7A4FDFB7983F05A03DB43D7
:101FE000FB713C20FFF79CFDFB7983F03C03FB7108
:101FF000F120FFF795FDFB7983F00103DB43FB71D3
:102000000020FFF78DFD0120FFF78AFDFB7983F0AB
:102010000103FB710020FFF783FD0020FFF780FD27
:102020000020FFF77DFD0020FFF77AFDFB791846C1
:10203000FFF776FDFB79DB43DBB21846FFF770FD57
:1020400000BF0837BD4680BD80B584B000AF0346F1
:10205000FB710023FB730120FFF762FDFB7B83F024
:102060000103FB73E120FFF75BFDFB7B83F01E03A5
:10207000DB43FB736920FFF753FDFB7B83F06903B0
:10208000FB73A520FFF74CFDFB7B83F05A03DB437A
:10209000FB733C20FFF744FDFB7B83F03C03FB73A9
:1020A000FE20FFF73DFDFB7B83F00103DB43FB7369
:1020B0000020FFF735FD0120FFF732FDFB7B83F0A9
:1020C0000103FB73FB791846FFF72AFDFA7BFB79C6
:1020D0005340FB730020FFF723FD0020FFF720FD96
:1020E0000020FFF71DFDFB7B1846FFF719FDFB7B6A
:1020F000DB43DBB21846FFF713FD00BF1037BD46C8
:1021000080BD80B584B000AF03460A46FB7113461C
:10211000BB710023FB730120FFF702FDFB7B83F003
:102120000103FB73E120FFF7FBFCFB7B83F01E0345
:10213000DB43FB736920FFF7F3FCFB7B83F0690350
:10214000FB73A520FFF7ECFCFB7B83F05A03DB431A
:10215000FB733C20FFF7E4FCFB7B83F03C03FB7349
:10216000FF20FFF7DDFCFB7BDB43FB730020FFF769
:10217000D7FC0120FFF7D4FCFB7B83F00103FB734A
:10218000FB791846FFF7CCFCFA7BFB795340FB73D5
:10219000BB791846FFF7C4FC0020FFF7C1FC002004
:1021A000FFF7BEFCFB7B1846FFF7BAFCFB7BDB436B
:1021B000DBB21846FFF7B4FC00BF1037BD4680BD48
:1021C00080B584B000AF03460A46FB8013467B719E
:1021D0000023FB730120FFF7A3FCFB7B83F00103CB
:1021E000FB73E120FFF79CFCFB7B83F01E03DB43CA
:1021F000FB736920FFF794FCFB7B83F06903FB739F
:10220000A520FFF78DFCFB7B83F05A03DB43FB73B8
:102210003C20FFF785FCFB7B83F06903FB73FD200B
:10222000FFF77EFCFB7B83F00203DB43FB730020A4
:10223000FFF776FC0120FFF773FCFB7B83F00103C3
:10224000FB73FB88BB73BB7B1846FFF769FCFA7B0B
:10225000BB7B5340FB73FB881B099BB2BB73BB7BEF
:102260001846FFF75DFCFA7BBB7B5340FB737B7921
:102270001846FFF755FCFA7B7B795340FB7300202F
:10228000FFF74EFCFB7B1846FFF74AFCFB7BDB436A
:10229000DBB21846FFF744FC00BF1037BD4680BDD7
:1022A000F0B58FB004AF0346FB719C4B1B780A2B33
:1022B00000F2AC8101A252F823F000BFE92200082D
:1022C000112300084D23000889230008C5230008B6
:1022D0000124000823240008452400089F24000846
:1022E000EB24000839250008FB79012B09D18B4B21
:1022F0001B780133DAB2894B1A70894B01221A70AC
:1023000002E0864B00221A70864B00221A7082E18E
:10231000FB79E12B0DD1814B1B780133DAB27F4B76
:102320001A707F4B1A78FB795340DAB27C4B1A70E3
:1023300071E17A4B00221A707B4B1B8801339AB2F1
:10234000794B1A80774B01221A7064E1FB79692B73
:102350000DD1724B1B780133DAB2704B1A70704B8F
:102360001A78FB795340DAB26D4B1A7053E16B4B1C
:1023700000221A706C4B1B8801339AB26A4B1A8088
:10238000684B02221A7046E1FB79A52B0DD1634BF5
:102390001B780133DAB2614B1A70614B1A78FB7902
:1023A0005340DAB25E4B1A7035E15C4B00221A7072
:1023B0005D4B1B8801339AB25B4B1A80594B032249
:1023C0001A7028E1FB793C2B0DD1544B1B7801335B
:1023D000DAB2524B1A70524B1A78FB795340DAB288
:1023E0004F4B1A7017E14D4B00221A704E4B1B8851
:1023F00001339AB24C4B1A804A4B04221A700AE1FC
:10240000474B1A78FB795340DAB2454B1A70474A6A
:10241000FB791370414B1B780133DAB23F4B1A70D2
:10242000F9E03F4B1A78FB795340DAB23C4B1A7013
:102430003E4AFB795370394B1B780133DAB2374B84
:102440001A70E8E0364B1A78FB795340DAB2344B15
:102450001A70364AFB799370FB79082B03D92F4BFE
:1024600000221A70D7E0314B9B78002B10D02B4BF9
:102470001B780133DAB2294B1A702C4B9B789BB234
:102480009B009AB22A4B1A802A4B00221A80C2E083
:10249000224B1B780233DAB2204B1A70BBE0204B80
:1024A0001A78FB795340DAB21D4B1A70214B1B8806
:1024B0001A461E4B1344FA79DA701E4B1B880133FF
:1024C0009AB21C4B1A801A4B1B88013B9AB2184BCC
:1024D0001A80174B1B88002B40F09C800F4B1B78F9
:1024E0000133DAB20D4B1A7094E00D4B1B78FA7978
:1024F0009A4206D1094B1B780133DAB2074B1A70A6
:1025000089E0064B00221A70074B1B8801339AB2F0
:10251000054B1A80034B09221A707CE0A844002066
:102520005E1100202C4900206A1300208044002006
:10253000240B0020260B0020384B1B78DB43DBB23A
:10254000FA799A4206D0364B00221A70354B0A228D
:102550001A7060E0344B1B880F2B4AD8334B1B8812
:102560001A46334913469B001344DA00D21A0A4430
:10257000304B104603F1200402461946D1F800C042
:102580004E688D68C968C2F800C056609560D16019
:1025900010331030A342EFD1024619889B78118086
:1025A0009370224B1B8801339AB2204B1A801F4B29
:1025B0001B8803F00F039AB21C4B1A801A4B1B881E
:1025C00001339AB2184B1A801B4BC7F81A30174BBD
:1025D0001B88FB836B4607F11C0207CA03C31A80E2
:1025E00007F10C030FCBFEF7DDFF0D4B00221A7035
:1025F00011E00B4B00221A70104B1B8801339AB26A
:102600000E4B1A80074B0B221A7004E0044B002279
:102610001A7000E000BF2C37BD46F0BD5E110020EF
:10262000A84400202C490020A4440020721300205C
:102630002C0B002080440020412600086A13002053
:1026400080B483B000AF786000BF0C37BD465DF842
:10265000047B704780B582B000AF78603D4B0022AC
:102660001A803D4B00221A803C4B00221A803C4BC2
:1026700000221A803B4B00221A803B4B00221A801A
:102680003A4B00221A603A4B00221A60394B002262
:102690001A60262000F03DFE374A38497B68B1FBBE
:1026A000F3F31360334B00221A60314B00221A609F
:1026B0002E4B42F22C021A6000BF00BF00BF00BFC9
:1026C00000BF00BF00BF00BF00BF00BF00BF00BF12
:1026D00000BF00BF00BF00BF00BF00BF00BF00BF02
:1026E00000BF00BF00BF00BF00BF00BF00BF00BFF2
:1026F00000BF00BF00BF00BF00BF00BF00BF00BFE2
:1027000000BF00BF00BF00BF00BF00BF00BF00BFD1
:1027100000BF00BF00BF00BF262000F0FAFD26204A
:1027200000F0CAFD7B68164AA2FB0323DB0842F2D5
:102730001072B2FBF3F39AB2124B1A80114B1A8843
:10274000114B1A80114B00221A6000BF0837BD469A
:1027500080BD00BFA6440020AE44002062130020CC
:10276000B04400207E440020701300200C44004040
:1027700010440040144400400838014000A24A04BC
:10278000CDCCCCCCAA4400206013002004380140FA
:1027900080B582B000AF72B6262000F0BAFD1A4BA9
:1027A0001B6803F00803002B04D0184B1B68FB7157
:1027B00062B625E0154B1B68FB71154B1B8840F674
:1027C000FD72934218D8134B1B881946124AFB79A5
:1027D00053540F4B1B8801339AB20D4B1A800F4B89
:1027E0001B8801339AB20D4B1A800C4B1B88C3F324
:1027F0000B039AB2094B1A80044B1B68FB7162B63B
:102800000837BD4680BD00BF00440040044400407E
:10281000B0440020783400207C3400207E44002026
:1028200080B483B000AF0023FB8072B6164B1B88C8
:10283000002B1FD0154B1B881A46154B9B5CFB8049
:10284000FB886FEA43436FEA5343FB800E4B1B88C0
:10285000013B9AB20C4B1A800E4B1B8801339AB283
:102860000C4B1A800B4B1B88C3F30B039AB2094B1A
:102870001A8001E00023FB8062B6FB8818460C3703
:10288000BD465DF8047B7047B044002074330020DF
:102890007C3400207013002080B400AF72B6124B5D
:1028A0001B88002B19D0114B1B881A46104B9A5CC1
:1028B000104B1A600C4B1B88013B9AB20A4B1A80D2
:1028C0000A4B1B8801339AB2084B1A80074B1B88AE
:1028D000C3F30C039AB2054B1A8062B600BFBD4623
:1028E0005DF8047B704700BFA644002062130020FF
:1028F000741300200444004080B483B000AF03464A
:10290000FB71124B1B8841F6FD72934218D8104B95
:102910001B8819460F4AFB7953540D4B1B88013312
:102920009AB20B4B1A800A4B1B88C3F30C039AB262
:10293000074B1A80054B1B8801339AB2034B1A8050
:1029400000BF0C37BD465DF8047B7047A6440020ED
:10295000AE4400207413002080B584B000AF7860CE
:10296000786801F0ADFD0346BB810023FB8109E0DF
:10297000FB897A6813441B781846FFF7BDFFFB8973
:102980000133FB81FA89BB899A42F1D300BF00BFB2
:102990001037BD4680BD00BF80B58CB004AFA84BDA
:1029A0004FF400421A60A74BD3E90023501C43F1B7
:1029B0000001A44BC3E90001A34B1B88002B05D0E9
:1029C000A14B1B88013B9AB29F4B1A809F4B1A88E0
:1029D0009F4BA3FB0213D9080B469B000B445B00E3
:1029E000D31A9BB2092B00F21F8101A252F823F0E7
:1029F000192A0008472A0008932A0008DF2A00083D
:102A00002B2B0008772B0008312C0008312C0008F4
:102A1000312C0008312C00088E4B1B8801339AB2F0
:102A20008C4B1A808B4B1B888B4AA2FB0312920B98
:102A30004EF6602101FB02F29B1A9AB2854B1A8076
:102A400000F0EEFE17E1854B1B68002B00F0F280D2
:102A5000824B1B68013B814A1360804B1B68002B33
:102A600040F0E8807D4B5B68C7F812307B4A07F185
:102A7000160308321168526819605A606B4607F1F4
:102A8000140207CA03C31A803B1D0FCBFEF78AFD51
:102A9000D0E0724B1B69002B00F0CE806F4B1B699E
:102AA000013B6E4A13616D4B1B69002B40F0C480E3
:102AB0006A4B5B69C7F81230684A07F1160318328F
:102AC0001168526819605A606B4607F1140207CA10
:102AD00003C31A803B1D0FCBFEF764FDACE05F4BD8
:102AE0001B6A002B00F0AA805C4B1B6A013B5B4A0F
:102AF00013625A4B1B6A002B40F0A080574B5B6A55
:102B0000C7F81230554A07F1160328321168526887
:102B100019605A606B4607F1140207CA03C31A8092
:102B20003B1D0FCBFEF73EFD88E04C4B1B6B002B93
:102B300000F0A080494B1B6B013B484A1363474B95
:102B40001B6B002B40F09680444B5B6BC7F8123038
:102B5000424A07F1160338321168526819605A6008
:102B60006B4607F1140207CA03C31A803B1D0FCB43
:102B7000FEF718FD7EE0374B1A88394BA3FB021392
:102B8000D9080B469B000B4499000B44D31A9BB207
:102B9000002B2CD1334B1B68002B14DA324B1B88D3
:102BA000013B9AB2304B1A802F4B1A882F4B1A8058
:102BB0002D4B1B88012B1AD82A4B1B6823F000438E
:102BC000284A136013E0284B1B8801339AB2264B26
:102BD0001A80254B1A88254B1A80234B1B88182BEB
:102BE00005D9204B1B6843F000431E4A13601F4B5E
:102BF0001B88002B13D01D4B1B88013B9AB21B4B2B
:102C00001A801A4B1B88002B04D1194B4FF4004239
:102C10001A6030E0164B4FF000421A602BE0144B64
:102C20004FF400421A6026E0084B00221A8022E08E
:102C300000BF20E000BF1EE000BF1CE000BF1AE0A4
:102C40001800004840040020B44800204A04002036
:102C5000CDCCCCCC4804002073B2E7456004002002
:102C60001F85EB51340400204C0400204E0400204A
:102C70001808004800BF224B1B8801339AB2204B32
:102C80001A801F4B1A881F4BA3FB0213D9080B464F
:102C90009B000B445B00D31A9AB2194B1A801A4B53
:102CA0001B88002B0FD0184B1B88013B9AB2164B88
:102CB0001A80154B1B88002B05D1144B1A88124B18
:102CC0001A80FEF7FDFE124B1B88002B0FD0104B15
:102CD0001B88013B9AB20E4B1A800D4B1B88002BB0
:102CE00005D10C4B1A880A4B1A80FFF7D5FD0A4B09
:102CF0004FF000421A6000BF2037BD4680BD00BFC4
:102D00004A040020CDCCCCCCAC4400207C44002034
:102D100060130020AA4400201800004880B483B04B
:102D200000AF78607B6803F01F0207497B685B098E
:102D3000012000FA02F241F8232000BF0C37BD4603
:102D40005DF8047B704700BF00E100E080B483B011
:102D500000AF78607B6803F01F0207497B685B095E
:102D6000012000FA02F2203341F8232000BF0C3783
:102D7000BD465DF8047B704700E100E080B483B09D
:102D800000AF78607B6803F01F0207497B685B092E
:102D9000012000FA02F2603341F8232000BF0C3713
:102DA000BD465DF8047B704700E100E080B483B06D
:102DB00000AF786039603B68DBB2074A1B01D9B2CB
:102DC0007B68134403F540730A461A7000BF0C3742
:102DD000BD465DF8047B704700E100E080B582B03D
:102DE00000AF72B60F4B104A1A600023FB8010E050
:102DF000FB880E4AD35C7B717B7903F00F033B7138
:102E00003A79FB881146184600F092FAFB880133A4
:102E1000FB80FB88602BEBD962B600BF0837BD464C
:102E200080BD00BF0CED00E00000FA05306700082F
:102E300080B400AF00BFBD465DF8047B704780B42E
:102E400000AF00BFBD465DF8047B704780B400AFA3
:102E500000BFBD465DF8047B704780B400AF00BF83
:102E6000BD465DF8047B704780B400AF00BFBD462F
:102E70005DF8047B704780B400AF00BFBD465DF8CD
:102E8000047B704780B400AF194B1B780F2B28D8F8
:102E900001A252F823F000BFE32E0008E32E000841
:102EA000E32E0008E32E0008E32E0008D92E0008C8
:102EB000E32E0008E32E0008E32E0008E32E0008AE
:102EC000E32E0008E32E0008E32E0008E32E00089E
:102ED000E32E0008E32E00084FF0000080F3148872
:102EE00000E000BF00BFBD465DF8047B704700BF37
:102EF0005804002080B400AF00BFBD465DF8047BDD
:102F0000704780B400AF00BFBD465DF8047B7047DA
:102F100080B500AFFFF740FD00BF80BD80B400AFBB
:102F200000BFBD465DF8047B704780B400AF00BFB2
:102F3000BD465DF8047B704780B400AF00BFBD465E
:102F40005DF8047B704780B400AF00BFBD465DF8FC
:102F5000047B704780B400AF00BFBD465DF8047BC2
:102F6000704780B400AF00BFBD465DF8047B70477A
:102F700080B400AF00BFBD465DF8047B704780B4ED
:102F800000AF00BFBD465DF8047B704780B400AF62
:102F900000BFBD465DF8047B704780B400AF00BF42
:102FA000BD465DF8047B704780B400AF00BFBD46EE
:102FB0005DF8047B704780B400AF00BFBD465DF88C
:102FC000047B704780B400AF00BFBD465DF8047B52
:102FD000704780B400AF00BFBD465DF8047B70470A
:102FE00080B400AF00BFBD465DF8047B704780B47D
:102FF00000AF00BFBD465DF8047B704780B400AFF2
:1030000000BFBD465DF8047B704780B400AF00BFD1
:10301000BD465DF8047B704780B400AF00BFBD467D
:103020005DF8047B704780B400AF00BFBD465DF81B
:10303000047B704780B400AF00BFBD465DF8047BE1
:10304000704780B400AF00BFBD465DF8047B704799
:1030500080B400AF00BFBD465DF8047B704780B40C
:1030600000AF00BFBD465DF8047B704780B400AF81
:1030700000BFBD465DF8047B704780B400AF00BF61
:10308000BD465DF8047B704780B400AF00BFBD460D
:103090005DF8047B704780B400AF00BFBD465DF8AB
:1030A000047B704780B400AF00BFBD465DF8047B71
:1030B000704780B400AF00BFBD465DF8047B704729
:1030C00080B400AF00BFBD465DF8047B704780B49C
:1030D00000AF00BFBD465DF8047B704780B400AF11
:1030E00000BFBD465DF8047B704780B400AF00BFF1
:1030F000BD465DF8047B704780B400AF00BFBD469D
:103100005DF8047B704780B400AF00BFBD465DF83A
:10311000047B704780B400AF00BFBD465DF8047B00
:10312000704780B400AF00BFBD465DF8047B7047B8
:1031300080B400AF00BFBD465DF8047B704780B42B
:1031400000AF00BFBD465DF8047B704780B400AFA0
:1031500000BFBD465DF8047B704780B400AF00BF80
:10316000BD465DF8047B704780B400AF00BFBD462C
:103170005DF8047B704780B400AF00BFBD465DF8CA
:10318000047B704780B400AF00BFBD465DF8047B90
:10319000704780B400AF00BFBD465DF8047B704748
:1031A00080B400AF00BFBD465DF8047B704780B4BB
:1031B00000AF00BFBD465DF8047B704780B400AF30
:1031C00000BFBD465DF8047B704780B400AF00BF10
:1031D000BD465DF8047B704780B400AF00BFBD46BC
:1031E0005DF8047B704780B400AF00BFBD465DF85A
:1031F000047B704780B400AF00BFBD465DF8047B20
:10320000704780B400AF00BFBD465DF8047B7047D7
:1032100080B400AF00BFBD465DF8047B704780B44A
:1032200000AF00BFBD465DF8047B704780B400AFBF
:1032300000BFBD465DF8047B704780B400AF00BF9F
:10324000BD465DF8047B704780B400AF00BFBD464B
:103250005DF8047B704780B400AF00BFBD465DF8E9
:10326000047B704780B400AF00BFBD465DF8047BAF
:10327000704780B400AF00BFBD465DF8047B704767
:1032800080B400AF00BFBD465DF8047B704780B4DA
:1032900000AF00BFBD465DF8047B704780B400AF4F
:1032A00000BFBD465DF8047B704780B400AF00BF2F
:1032B000BD465DF8047B704780B582B000AF034621
:1032C000FB8072B6FB881846FFF728FD62B600BF88
:1032D0000837BD4680BD80B582B000AF0346FB8095
:1032E00072B6FB881846FFF719FD62B600BF0837B3
:1032F000BD4680BD80B582B000AF0346FB8072B68C
:10330000FB881846FFF722FD62B600BF0837BD46AE
:1033100080BD80B582B000AF0346FB8072B6FB88EB
:103320001846FFF72BFD62B600BF0837BD4680BDCB
:1033300080B582B000AF03460A46FB8013467B711E
:10334000FB887A7911461846FFF730FD00BF083731
:10335000BD4680BD80B483B000AF03460A46FB7112
:103360001346BB71714BFF221A70FB7903F0F00317
:10337000A02B4ED0A02B50DC902B46D0902B4CDCB9
:10338000802B3ED0802B48DC702B36D0702B44DC59
:10339000602B2ED0602B40DC502B26D0502B3CDCF9
:1033A000402B1ED0402B38DC302B16D0302B34DC99
:1033B000202B0ED0202B30DC002B02D0102B04D081
:1033C0002BE05B4B5B4A1A6028E0594B5A4A1A6063
:1033D00024E0574B594A1A6020E0554B584A1A606E
:1033E0001CE0534B574A1A6018E0514B564A1A607A
:1033F00014E04F4B554A1A6010E04D4B544A1A6086
:103400000CE04B4B534A1A6008E0494B524A1A6091
:1034100004E0474B514A1A6000E000BFFB7903F01B
:103420000F03012202FA03F31A464D4B1A60FB798F
:1034300003F00F031033012202FA03F3DB431A46B1
:10344000484B1A60BB7903F0F003A02B4ED0A02BA1
:1034500050DC902B46D0902B4CDC802B3ED0802B28
:1034600048DC702B36D0702B44DC602B2ED0602BC8
:1034700040DC502B26D0502B3CDC402B1ED0402B68
:1034800038DC302B16D0302B34DC202B0ED0202B08
:1034900030DC002B02D0102B04D02BE0324B254A1D
:1034A0001A6028E0304B244A1A6024E02E4B234A4D
:1034B0001A6020E02C4B224A1A601CE02A4B214A59
:1034C0001A6018E0284B204A1A6014E0264B1F4A65
:1034D0001A6010E0244B1E4A1A600CE0224B1D4A71
:1034E0001A6008E0204B1C4A1A6004E01E4B1B4A7D
:1034F0001A6000E000BFFB7903F00F03012202FA1B
:1035000003F31A46194B1A60FB7903F00F031033CB
:10351000012202FA03F3DB431A46154B1A6000BF7F
:103520000C37BD465DF8047B704700BF5004002097
:1035300034490020180000481804004818080048C2
:10354000180C0048181000481814004818180048B3
:10355000181C00481820004818240048182C00485F
:103560002049002030490020284900201C49002023
:103570002449002080B400AF064B1B681968064B35
:103580001A68044B1B680A431A6000BFBD465DF809
:10359000047B7047344900202049002080B400AFEC
:1035A000064B1B681968064B1A68044B1B680A40D7
:1035B0001A6000BFBD465DF8047B704734490020A7
:1035C0003049002080B400AF064B1B681968064BD9
:1035D0001A68044B1B680A431A6000BFBD465DF8B9
:1035E000047B7047284900201C49002080B400AFAC
:1035F000064B1B681968064B1A68044B1B680A4087
:103600001A6000BFBD465DF8047B70472849002062
:103610002449002080B584B000AF0346FB718023AD
:103620007B73274B1B78002B45D0FFF7DFFFFFF79D
:10363000B5FF0023FB8122E0FA797B7B1340DBB2EC
:10364000002B02D0FFF7BEFF01E0FFF7CFFF00BF66
:1036500000BF00BF00BFFFF78DFF00BF00BF00BF6E
:1036600000BFFFF79BFF00BF00BF00BF00BFFFF719
:10367000BDFF7B7B5B087B73FB890133FB81FB898F
:10368000072BD9D900BF00BF00BF00BF00BF00BFDC
:1036900000BF00BF00BF00BF00BF00BF00BF00BF32
:1036A00000BF00BF00BF00BF00BF00BF00BF00BF22
:1036B00000BF00BF00E000BF1037BD4680BD00BFA7
:1036C0005004002080B584B000AF0346FB804FF467
:1036D0000043BB81264B1B78002B45D0FFF786FFAC
:1036E000FFF75CFF0023FB8122E0FA88BB891340CF
:1036F0009BB2002B02D0FFF765FF01E0FFF776FFDA
:1037000000BF00BF00BF00BFFFF734FF00BF00BF16
:1037100000BF00BFFFF742FF00BF00BF00BF00BFF8
:10372000FFF764FFBB895B08BB81FB890133FB8129
:10373000FB890F2BD9D900BF00BF00BF00BF00BF5E
:1037400000BF00BF00BF00BF00BF00BF00BF00BF81
:1037500000BF00BF00BF00BF00BF00BF00BF00BF71
:1037600000BF00BF00BF00E000BF1037BD4680BDF6
:103770005004002080B584B000AF78604FF0004363
:10378000BB60264B1B78002B44D0FFF72FFFFFF7C1
:1037900005FF0023FB8121E07A68BB681340002B02
:1037A00002D0FFF70FFF01E0FFF720FF00BF00BFCF
:1037B00000BF00BFFFF7DEFE00BF00BF00BF00BFBD
:1037C000FFF7ECFE00BF00BF00BF00BFFFF70EFF1A
:1037D000BB685B08BB60FB890133FB81FB891F2B46
:1037E000DAD900BF00BF00BF00BF00BF00BF00BFED
:1037F00000BF00BF00BF00BF00BF00BF00BF00BFD1
:1038000000BF00BF00BF00BF00BF00BF00BF00BFC0
:1038100000BF00E000BF1037BD4680BD500400204F
:1038200080B400AF114B1B78002B19D0104B4FF414
:1038300080421A6000BF00BF00BF00BF00BF00BFD2
:1038400000BF00BF00BF00BF00BF00BF084B4FF06C
:1038500080421A60054B1B78013BDAB2034B1A70A9
:1038600000BFBD465DF8047B704700BF2C490020B7
:103870001800004880B500AF034B1B889BB2002B9B
:10388000FAD0FDF7F1FEF7E7220B002070B54FF0FC
:10389000FF0C4CF4E06C1CEA11541DBF1CEA1355DC
:1038A00094EA0C0F95EA0C0F00F0DEF82C4481EA44
:1038B000030621EA4C5123EA4C5350EA013518BF64
:1038C00052EA033541F4801143F4801338D0A0FB51
:1038D00002CE4FF00005E1FB02E506F00042E0FBFE
:1038E00003E54FF00006E1FB03569CF0000F18BF04
:1038F0004EF0010EA4F1FF04B6F5007F64F54074AC
:1039000004D25FEA4E0E6D4146EB060642EAC6213E
:1039100041EA55514FEAC52040EA5E504FEACE2EAB
:10392000B4F1FD0C88BFBCF5E06F1ED8BEF1004FAE
:1039300008BF5FEA500E50F1000041EB045170BD2A
:1039400006F0004646EA010140EA020081EA03016E
:10395000B4EB5C04C2BFD4EB0C0541EA045170BD6A
:1039600041F480114FF0000E013C00F3AB8014F1E4
:10397000360FDEBF002001F0004170BDC4F100042D
:10398000203C35DA0C341BDC04F11404C4F12005AE
:1039900000FA05F320FA04F001FA05F240EA020009
:1039A00001F0004221F0004110EBD37021FA04F63F
:1039B00042EB06015EEA430E08BF20EAD37070BDF9
:1039C000C4F10C04C4F1200500FA04F320FA05F058
:1039D00001FA04F240EA020001F0004110EBD3705A
:1039E00041F100015EEA430E08BF20EAD37070BDCA
:1039F000C4F1200500FA05F24EEA020E20FA04F3A3
:103A000001FA05F243EA020321FA04F001F0004151
:103A100021FA04F220EA020000EBD3705EEA430EC2
:103A200008BF20EAD37070BD94F0000F0FD101F0F1
:103A30000046400041EB010111F4801F08BF013C2A
:103A4000F7D041EA060195F0000F18BF704703F068
:103A50000046520043EB030313F4801F08BF013DEF
:103A6000F7D043EA0603704794EA0C0F0CEA1355AB
:103A700018BF95EA0C0F0CD050EA410618BF52EA65
:103A80004306D1D181EA030101F000414FF000006B
:103A900070BD50EA410606BF1046194652EA430679
:103AA00019D094EA0C0F02D150EA013613D195EAED
:103AB0000C0F05D152EA03361CBF104619460AD135
:103AC00081EA030101F0004141F0FE4141F470013F
:103AD0004FF0000070BD41F0FE4141F4780170BD2F
:103AE00081F0004102E000BF83F0004330B54FEAAF
:103AF00041044FEA430594EA050F08BF90EA020F1C
:103B00001FBF54EA000C55EA020C7FEA645C7FEAAE
:103B1000655C00F0E2804FEA5454D4EB5555B8BFD1
:103B20006D420CDD2C4480EA020281EA030382EA42
:103B3000000083EA010180EA020281EA0303362DD4
:103B400088BF30BD11F0004F4FEA01314FF4801CA7
:103B50004CEA113102D0404261EB410113F0004FB9
:103B60004FEA03334CEA133302D0524263EB430370
:103B700094EA050F00F0A780A4F10104D5F1200E0E
:103B80000DDB02FA0EFC22FA05F2801841F1000169
:103B900003FA0EF2801843FA05F359410EE0A5F13D
:103BA00020050EF1200E012A03FA0EFC28BF4CF06E
:103BB000020C43FA05F3C01851EBE37101F0004524
:103BC00007D54FF0000EDCF1000C7EEB00006EEB31
:103BD0000101B1F5801F1BD3B1F5001F0CD34908BB
:103BE0005FEA30004FEA3C0C04F101044FEA445212
:103BF00012F5800F80F09A80BCF1004F08BF5FEA99
:103C0000500C50F1000041EB045141EA050130BD78
:103C10005FEA4C0C404141EB0101013C28BFB1F58A
:103C2000801FE9D291F0000F04BF01460020B1FAD5
:103C300081F308BF2033A3F10B03B3F120020CDAA8
:103C40000C3208DD02F1140CC2F10C0201FA0CF086
:103C500021FA02F10CE002F11402D8BFC2F1200CEB
:103C600001FA02F120FA0CFCDCBF41EA0C019040A1
:103C7000E41AA2BF01EB0451294330BD6FEA0404EA
:103C80001F3C1CDA0C340EDC04F11404C4F12002D5
:103C900020FA04F001FA02F340EA030021FA04F3E7
:103CA00045EA030130BDC4F10C04C4F1200220FA3E
:103CB00002F001FA04F340EA0300294630BD21FA7C
:103CC00004F0294630BD94F0000F83F4801306BF42
:103CD00081F480110134013D4EE77FEA645C18BF36
:103CE0007FEA655C29D094EA050F08BF90EA020FCD
:103CF00005D054EA000C04BF1946104630BD91EAC5
:103D0000030F1EBF0021002030BD5FEA545C05D1C7
:103D10004000494128BF41F0004130BD14F5800406
:103D20003CBF01F5801130BD01F0004545F0FE417A
:103D300041F470014FF0000030BD7FEA645C1ABFAF
:103D4000194610467FEA655C1CBF0B46024650EAE6
:103D5000013406BF52EA033591EA030F41F4002112
:103D600030BD00BF90F0000F04BF0021704730B598
:103D70004FF4806404F132044FF000054FF000016D
:103D800050E700BF90F0000F04BF0021704730B52E
:103D90004FF4806404F1320410F0004548BF404203
:103DA0004FF000013EE700BF42004FEAE2014FEA58
:103DB00031014FEA02701FBF12F07F4393F07F4F33
:103DC00081F06051704732F07F4208BF704793F036
:103DD0007F4F04BF41F40021704730B54FF4607449
:103DE00001F0004521F000411CE700BF50EA01024C
:103DF00008BF704730B54FF000050AE050EA0102F5
:103E000008BF704730B511F0004502D5404261EB64
:103E100041014FF4806404F132045FEA915C3FF4A5
:103E2000D8AE4FF003025FEADC0C18BF03325FEA42
:103E3000DC0C18BF033202EBDC02C2F1200300FAF3
:103E400003FC20FA02F001FA03FE40EA0E0021FA18
:103E500002F11444BDE600BF70B54FF0FF0C4CF406
:103E6000E06C1CEA11541DBF1CEA135594EA0C0FB8
:103E700095EA0C0F00F0DEF82C4481EA030621EAF3
:103E80004C5123EA4C5350EA013518BF52EA03352E
:103E900041F4801143F4801338D0A0FB02CE4FF0E0
:103EA0000005E1FB02E506F00042E0FB03E54FF010
:103EB0000006E1FB03569CF0000F18BF4EF0010E08
:103EC000A4F1FF04B6F5007F64F5407404D25FEA04
:103ED0004E0E6D4146EB060642EAC62141EA5551B7
:103EE0004FEAC52040EA5E504FEACE2EB4F1FD0CF9
:103EF00088BFBCF5E06F1ED8BEF1004F08BF5FEA77
:103F0000500E50F1000041EB045170BD06F0004628
:103F100046EA010140EA020081EA0301B4EB5C04D5
:103F2000C2BFD4EB0C0541EA045170BD41F48011CD
:103F30004FF0000E013C00F3AB8014F1360FDEBFF2
:103F4000002001F0004170BDC4F10004203C35DACE
:103F50000C341BDC04F11404C4F1200500FA05F351
:103F600020FA04F001FA05F240EA020001F00042F2
:103F700021F0004110EBD37021FA04F642EB060168
:103F80005EEA430E08BF20EAD37070BDC4F10C0492
:103F9000C4F1200500FA04F320FA05F001FA04F256
:103FA00040EA020001F0004110EBD37041F1000142
:103FB0005EEA430E08BF20EAD37070BDC4F120054D
:103FC00000FA05F24EEA020E20FA04F301FA05F2B5
:103FD00043EA020321FA04F001F0004121FA04F25D
:103FE00020EA020000EBD3705EEA430E08BF20EA2D
:103FF000D37070BD94F0000F0FD101F00046400067
:1040000041EB010111F4801F08BF013CF7D041EAE8
:10401000060195F0000F18BF704703F000465200EC
:1040200043EB030313F4801F08BF013DF7D043EABD
:104030000603704794EA0C0F0CEA135518BF95EA73
:104040000C0F0CD050EA410618BF52EA4306D1D1FA
:1040500081EA030101F000414FF0000070BD50EA19
:10406000410606BF1046194652EA430619D094EAA3
:104070000C0F02D150EA013613D195EA0C0F05D18D
:1040800052EA03361CBF104619460AD181EA0301E1
:1040900001F0004141F0FE4141F470014FF0000099
:1040A00070BD41F0FE4141F4780170BD70B54FF034
:1040B000FF0C4CF4E06C1CEA11541DBF1CEA1355B4
:1040C00094EA0C0F95EA0C0F00F0A7F8A4EB050496
:1040D00081EA030E52EA03354FEA013100F088808D
:1040E0004FEA03334FF0805545EA131343EA126356
:1040F0004FEA022245EA111545EA10654FEA00260B
:104100000EF000419D4208BF964244F1FD0404F5C3
:10411000407402D25B084FEA3202B61A65EB03051F
:104120005B084FEA32024FF480104FF4002CB6EBDC
:10413000020E75EB030E22BFB61A754640EA0C005C
:104140005B084FEA3202B6EB020E75EB030E22BF9C
:10415000B61A754640EA5C005B084FEA3202B6EBDD
:10416000020E75EB030E22BFB61A754640EA9C009C
:104170005B084FEA3202B6EB020E75EB030E22BF6C
:10418000B61A754640EADC0055EA060E18D04FEA2A
:10419000051545EA16754FEA06164FEAC30343EACA
:1041A00052734FEAC2025FEA1C1CC0D111F4801F97
:1041B0000BD141EA00014FF000004FF0004CB6E790
:1041C00011F4801F04BF01430020B4F1FD0C88BF2F
:1041D000BCF5E06F3FF6AFAEB5EB030C04BFB6EB3A
:1041E000020C5FEA500C50F1000041EB045170BD2D
:1041F0000EF0004E4EEA113114EB5C04C2BFD4EB5A
:104200000C0541EA045170BD41F480114FF0000EDD
:10421000013C90E645EA060E8DE60CEA135594EA59
:104220000C0F08BF95EA0C0F3FF43BAF94EA0C0F5C
:104230000AD150EA01347FF434AF95EA0C0F7FF4D1
:1042400025AF104619462CE795EA0C0F06D152EA25
:1042500003353FF4FDAE1046194622E750EA410609
:1042600018BF52EA43067FF4C5AE50EA41047FF41A
:104270000DAF52EA43057FF4EBAE12E74FF0FF3C7F
:1042800006E000BF4FF0010C02E000BF4FF0010C50
:104290004DF804CD4FEA410C7FEA6C5C4FEA430CC9
:1042A00018BF7FEA6C5C1BD001B050EA410C0CBF18
:1042B00052EA430C91EA030F02BF90EA020F00207A
:1042C000704710F1000F91EA030F58BF994208BFE1
:1042D00090422CBFD8176FEAE37040F0010070479E
:1042E0004FEA410C7FEA6C5C02D150EA013C07D1F5
:1042F0004FEA430C7FEA6C5CD6D152EA033CD3D040
:104300005DF8040B704700BF8446104662468C4639
:104310001946634600E000BF01B5FFF7B7FF00286C
:1043200048BF10F1000F01BD4DF808EDFFF7F4FF95
:104330000CBF012000205DF808FB00BF4DF808ED20
:10434000FFF7EAFF34BF012000205DF808FB00BF43
:104350004DF808EDFFF7E0FF94BF012000205DF865
:1043600008FB00BF4DF808EDFFF7CEFF94BF01201A
:1043700000205DF808FB00BF4DF808EDFFF7C4FF13
:1043800034BF012000205DF808FB00BF4FEA410C5C
:104390007FEA6C5C02D150EA013C0AD14FEA430C3F
:1043A0007FEA6C5C02D152EA033C02D14FF000007C
:1043B00070474FF0010070474FEA410212F50012BA
:1043C00015D211D56FF47873B3EB625212D94FEA5C
:1043D000C12343F0004343EA505311F0004F23FA46
:1043E00002F018BF404270474FF00000704750EA9B
:1043F000013005D111F0004008BF6FF00040704758
:104400004FF00000704700BF4FEA4102B2F1E043B5
:1044100024BFB3F5001CDCF1FE5C0DD901F0004CAB
:104420004FEAC0024CEA5070B2F1004F40EB8300FB
:1044300008BF20F00100704711F0804F21D113F127
:104440003872BCBF01F00040704741F480114FEA60
:104450005252C2F11802C2F1200C10FA0CF320FAE9
:1044600002F018BF40F001004FEAC1234FEAD32306
:1044700003FA0CFC40EA0C0023FA02F34FEA430370
:10448000CCE77FEA625307D150EA01331EBF4FF0F9
:10449000FE4040F44000704701F0004040F0FE4014
:1044A00040F40000704700BF000000000000000062
:1044B00000000000000000000000000000000000FC
:1044C00090F800F06DE9024520F007016FF0000C54
:1044D00010F0070491F820F040F049804FF00004FC
:1044E0006FF00700D1E9002391F840F000F10800D7
:1044F00082FA4CF2A4FA8CF283FA4CF3A2FA8CF30F
:104500004BBBD1E9022382FA4CF200F10800A4FA75
:104510008CF283FA4CF3A2FA8CF3E3B9D1E90423C9
:1045200082FA4CF200F10800A4FA8CF283FA4CF300
:10453000A2FA8CF37BB9D1E9062301F1200182FABA
:104540004CF200F10800A4FA8CF283FA4CF3A2FAC0
:104550008CF3002BC6D0002A04BF04301A4612BACE
:10456000B2FA82F2FDE8024500EBD2007047D1E9D1
:10457000002304F00305C4F100004FEAC50514F060
:10458000040F91F840F00CFA05F562EA05021CBF31
:1045900063EA050362464FF00004A9E7000000004B
:1045A00051EC100BF8B5C1F30A53A3F2FF35132DEC
:1045B00010EE106A0C4620DC002D3DDB384F2F41F9
:1045C00001EA070303431DD033A3D3E90023FFF718
:1045D0008DFA00220023FFF7CFFE48B1002C04DA49
:1045E0004FF4801343FA05F52C4424EA070400260F
:1045F0002346324643EC102BF8BD332D05DDB5F5CF
:10460000806F29D041EC100BF8BDA3F213434FF09B
:10461000FF37DF400742F5D01FA3D3E90023FFF7A0
:1046200065FA00220023FFF7A7FE0028E0D0002C47
:1046300023DB26EA0706DBE717A3D3E90023FFF70E
:1046400055FA00220023FFF797FE0028D0D0002C57
:104650000ADB00263446CBE710EE102A0B46FFF7A4
:1046600045FA41EC100BF8BD24F000430D4A1E43FF
:10467000002E18BF14460026BAE7142D08D00123D7
:10468000C5F1340503FA05F5AE1928BFE418D0E7E3
:104690000134CEE7AFF300809C7500883CE4377EA0
:1046A000FFFF0F000000F0BF38B52DED028B55EC79
:1046B000104B00F0B5F91E4BB0EE408AF0EE608A68
:1046C00093F9003001331AD022462B462046294662
:1046D000FFF75CFE98B90022002320462946FFF729
:1046E00037FE60B12046294600220023FFF71CFE5A
:1046F00060B102F00DF89FED0C8B22230360B0EE49
:10470000480AF0EE680ABDEC028B38BD02F000F8F2
:10471000BDEC028B21230360BDE83840054801F061
:10472000CFBB00BFAFF30080000000000000F0FF2F
:1047300000000020B0010008F8B52DED028B57EC09
:10474000106B55EC114B00F003FA634BB0EE408A4E
:10475000F0EE608A93F9003001332AD022462B46CE
:1047600020462946FFF712FE18BB32463B4630462C
:104770003946FFF70BFE002844D1002200233046C3
:104780003946FFF7D1FDD8B1002200232046294643
:10479000FFF7CAFD00283DD145EC104B01F084FB2A
:1047A00038B12046294600220023FFF7C7FD002824
:1047B0005CD1B0EE480AF0EE680ABDEC028BF8BDA1
:1047C000B0EE480AF0EE680A01F06EFB58B351EC07
:1047D000180B00220023FFF7A7FD0028E9D047ECC3
:1047E000106B01F061FB0028E3D045EC104B01F0A9
:1047F0005BFB0028DDD001F08BFF22239FED2E8B89
:104800000360D6E72046294600220023FFF78CFDEF
:104810000028CED09FED2A8BB0EE480AF0EE680A51
:10482000BDEC028BF8BD47EC106B01F03DFB00289E
:10483000CDD045EC104B01F037FB0028C7D053EC2E
:10484000182B18EE100A1946FFF7A0FD20BB01F047
:104850005FFF034622221A603046394600220023B9
:10486000FFF76CFD48B99FED188BA2E701F050FFF0
:1048700021239FED178B03609BE745EC104B01F064
:1048800027FB224651EC100B2B46FFF74DFD00286D
:10489000E9D19FED0F8B8CE701F03AFF0022002356
:1048A0002121016010461946FFF700FC41EC180B6E
:1048B0007FE700BFAFF300800000000000000000B1
:1048C000000000000000F03F000000000000F07F4A
:1048D000000000000000F0FF0000002008B52DEDF2
:1048E000048BF0EE408AB0EE608A00F0CFFF474BB9
:1048F00093F900300133B0EE409A1FD0B4EE488AED
:10490000F1EE10FA1AD6F4EE688AF1EE10FA59D6E2
:10491000DFED3F9AF4EE698AF1EE10FA13D1B4EEAE
:10492000698AF1EE10FA29D0B0EE480A01F0FEFBD8
:1049300020B1B4EEE98AF1EE10FA4DD4B0EE490A96
:10494000BDEC048B08BD01F0F1FBF0B1B5EE409A6F
:10495000F1EE10FAF2D1B0EE680A01F0E7FB0028A0
:10496000ECD0B0EE480A01F0E1FB0028E6D001F0FF
:10497000CFFE22239FED269A0360DFE7B7EE009A71
:10498000B0EE490ABDEC048B08BDB0EE680A01F038
:10499000CDFB0028DAD0B0EE480A01F0C7FB0028B2
:1049A000D4D0B4EE499AF1EE10FA28D601F0B0FE58
:1049B000F5EEC08A2223F1EE10FA036013D49FEDC6
:1049C000159ABBE7B5EE408AF1EE10FAF7EE007AE1
:1049D00008BFB0EE679AB1E701F09AFE21239FED80
:1049E0000E9A0360AAE7B0EE480A01F0B3FBB4EEFA
:1049F000480AF1EE10FAE2D09FED079A9EE701F027
:104A000087FE212389EEA99A036097E70000002022
:104A1000000000000000807F000080FF0000000018
:104A20002DE9F84355EC104BB5F5801F2B461EDAE7
:104A300025F00042224360D0002D68DB404B294620
:104A4000002210EE100AFFF707FA3E4A0D462B46E9
:104A5000934204466FF035010EDD22462B46204678
:104A60002946FFF743F841EC100BBDE8F883354ABF
:104A700093424FF00001F0DC1815A0F2FF3008441B
:104A8000C70F00EBD070C3F31306FFF77BF9C7F530
:104A90007F73033346EA035545EC104B06460F4639
:104AA00001F02AFC20A3D3E900233046394659EC13
:104AB000108BFFF7D1F91EA3D3E9002304460D465E
:104AC00040464946FFF7C8F902460B4620462946AC
:104AD000FFF70CF818A3D3E9002304460D4630462F
:104AE0003946FFF7B9F902460B4620462946FEF73C
:104AF000FDFF41EC100BBDE8F883002200231249B2
:104B00000020FFF7D3FA41EC100BBDE8F88310EE5C
:104B1000102A20462946FEF7E7FF00220023FFF770
:104B2000C5FA41EC100BA0E7362BF111F3FE593D0D
:104B30000EE526157BCBDB3F00609F501344D33F2F
:104B400000005043FFFFEF7F000050C30000000053
:104B50002DE9F04F57EC116B2DED0A8B27F0004A31
:104B60005AEA060289B03DD055EC104B764925F043
:104B70000048884510EE102AA9462CDC11EE103AA8
:104B8000BB463AD08A4526DC6F498A4521D0B9F127
:104B9000000F3DDB00210391002B55D16A4B9A4554
:104BA00000F0A880694B9A4500F0B680BBF1804FB9
:104BB00000F00185664B9B4546D1B9F1000F43DB00
:104BC00045EC104B09B0BDEC0A8BBDE8F04F00F08E
:104BD00099BD002BDBD008F1404808F5801858EA51
:104BE00002030DD19FED547B8DED007B9DED000BFD
:104BF00009B0BDEC0A8BBDE8F08F0CB9C245C3DD2E
:104C0000544809B0BDEC0A8BBDE8F04F01F058B92B
:104C100051498A4500F38780A1F154718A450FDD1F
:104C20004FEA2A51A1F2FF31142940F3CE84C1F199
:104C3000340123FA01F000FA01F1994200F02085D5
:104C400000210391002BADD045EC104B069201F0F2
:104C500021F9069A8DED000B5ABBB8F1000F04D074
:104C60003A4B29F040429A4223D1BBF1000F07DAB8
:104C7000DDE9002335490020FFF718FACDE90001EE
:104C8000B9F1000FB2DA039B08F1404808F580182B
:104C900058EA030340F0BE84DDE9002310461946BC
:104CA000FEF722FF02460B46FFF700FACDE90001AE
:104CB0009CE7039A4FEAD973013B0693134335D01F
:104CC000264B9A454EDD03F104739A45244B40F37D
:104CD000ED83984540F36B83BBF1000F40F36B838A
:104CE00017A3D3E9002310461946FFF7B5F8CDE91D
:104CF00000017BE708F1404303F5801313433FF4C1
:104D000071AF174B984540F38883BBF1000FC0F299
:104D10005283CDE9006769E7BBF1000FC0F241841F
:104D2000CDE9004562E70221039135E722462B4693
:104D3000B4E700BFAFF30080000000000000F03FC8
:104D40009C7500883CE4377E0000F07F0000F03F57
:104D50000000E03FB4010008FFFF3F430000E041D6
:104D6000FFFFEF3FE44B09EA0303002B40F01684FA
:104D7000DDE90001E14B0022FFF76EF8CDE900010B
:104D8000DDF804806FF034004FEA2853DC49C8F3A3
:104D90001302A3F2FF3342F07F5818188A4207909B
:104DA00048F4401840F3E983D64B9A4240F33E84DE
:104DB0009FEDBB7BB0EE47BAF0EE67BAB0EE47CAE4
:104DC000F0EE67CA9FEDB87B013054EC173B0790BB
:104DD000A8F580184FF00009DDE900AB44EC183B62
:104DE0001A46504623464146FEF77EFE53EC182BEA
:104DF00004460D4650464146FEF778FE02460B46F5
:104E00000020C149FFF752F945EC1A4B41EC190B50
:104E100051EC1A0B53EC192BFFF71EF8C3464FEA5F
:104E2000680848F0005808F5002303EB09050A4616
:104E300000230146CDE900120093DDE9008900243A
:104E4000CDE904122B46224640464946FFF704F8B6
:104E500002460B4651EC1A0BFEF746FE41EC170BCF
:104E600053EC182B2046294655EC174BFEF73CFE19
:104E700002460B4650465946FEF736FE42464B4622
:104E8000FEF7EAFF02460B4620462946FEF72CFEB7
:104E900053EC192BFEF7E0FFDDE904AB04460D46A9
:104EA00052465B4650465946FEF7D6FF80A3D3E9EB
:104EB000002345EC1A4B04460D46FEF7CDFF7EA3BA
:104EC000D3E90023FEF712FE22462B46FEF7C4FF6D
:104ED0007BA3D3E90023FEF709FE22462B46FEF70B
:104EE000BBFF79A3D3E90023FEF700FE22462B4641
:104EF000FEF7B2FF76A3D3E90023FEF7F7FD2246C3
:104F00002B46FEF7A9FF74A3D3E90023FEF7EEFDBD
:104F100022462B4604460D4610461946FEF79CFFD6
:104F200002460B4620462946FEF796FF42460446B7
:104F30000D464B4650465946CDE904ABFEF7D6FD2B
:104F400053EC1A2BFEF788FF22462B46FEF7CEFDC8
:104F5000424604460D464B4640464946FEF77CFF16
:104F600045EC194B694B002282468B46FEF7BEFD8D
:104F700053EC192BFEF7BAFD009C0D4622462B463A
:104F800040464946FEF768FF604B8046894600224E
:104F900020462946FEF7A8FD52465B46FEF7A4FDD3
:104FA00002460B4651EC190BFEF79EFDDDE904238A
:104FB000FEF752FF49EC188B2246804689462B4665
:104FC00051EC1A0BFEF748FF02460B464046494695
:104FD000FEF78CFD82468B4652465B4651EC180B21
:104FE000FEF784FD009C3EA3D3E9002320460D4636
:104FF000FEF732FF53EC182B80468946204629469F
:10500000FEF772FD02460B4650465946FEF76CFD10
:1050100035A3D3E90023FEF71FFF49EC198B34A316
:10502000D3E900238046894620462946FEF714FF2F
:1050300002460B4640464946FEF758FD53EC1C2BF2
:10504000FEF754FD824607988B46FEF79BFE5246BC
:10505000804689465B4651EC190BFEF747FD53EC41
:105060001B2BFEF743FD42464B46FEF73FFD009CDF
:1050700042464B4620460D46FEF736FD53EC1B2BB1
:10508000FEF732FD53EC192BFEF72EFD02460B46C0
:1050900050465946FEF728FD82468B4638E000BF51
:1050A0000000000000000000000000000000F03FD1
:1050B000EF4E454A287ECA3F65DBC9934A86CD3FFD
:1050C00001411DA96074D13F4D268F515555D53FE3
:1050D000FFAB6FDBB66DDB3F033333333333E33F7B
:1050E000000000E009C7EE3FFD033ADC09C7EE3FD0
:1050F000F5015B14E02F3EBE0000F07F000040434E
:105100008E98030079B60B000000F03F00000840C5
:10511000039B069A013B134340F078819FEDC47BCB
:10512000B0EE479AF0EE679A0023CDE9006700934E
:10513000DDE900893046424639464B46FEF7D4FC4D
:1051400022462B46FEF788FE32463B4606460F4671
:1051500050465946FEF780FE02460B463046394619
:10516000FEF7C4FC424682468B464B462046294603
:10517000FEF772FE06460F463B46504659463246FB
:10518000FEF7B4FCC44B994204460D46884640F3F2
:10519000178101F13F4303F5E003034340F02A8206
:1051A000A5A3D3E9002350465946FEF79FFC32469B
:1051B00041EC180B3B4620462946FEF795FC02467B
:1051C0000B4651EC180BFFF7D7F8002840F012827D
:1051D000C8F30A534FF48012A3F2FE3342FA03F3EA
:1051E0004344AE49C3F30A52A2F2FF3241FA02FC31
:1051F000C3F3130523EA0C01C2F1140445F480152E
:10520000B8F1000F0B4645FA04F103914FF000008E
:10521000B8BF49420246B8BF039130463946FEF74F
:1052200063FC06460F463B46504659463246FEF75B
:105230005DFC039B1B0500930D46002480A3D3E96E
:10524000002320462946FEF707FE3246804689465F
:105250003B4620462946FEF747FC02460B46504691
:105260005946FEF741FC78A3D3E90023FEF7F4FD8D
:1052700077A3D3E9002306460F4620462946FEF7CA
:10528000EBFD02460B4630463946FEF72FFC06463C
:105290000F4632463B4640464946FEF727FC42460B
:1052A0004B4604460D46FEF71FFC02460B463046B1
:1052B0003946FEF719FC224682468B462B4620468D
:1052C0002946FEF7C9FD64A3D3E9002306460F462D
:1052D000FEF7C2FD62A3D3E90023FEF705FC3246C8
:1052E0003B46FEF7B9FD60A3D3E90023FEF7FEFBC2
:1052F00032463B46FEF7B0FD5DA3D3E90023FEF73F
:10530000F3FB32463B46FEF7A7FD5BA3D3E9002340
:10531000FEF7ECFB32463B46FEF79EFD02460B468F
:1053200020462946FEF7E0FB06460F4632463B463E
:1053300020462946FEF790FD0022804689464FF020
:10534000804330463946FEF7CFFB02460B464046C7
:105350004946FEF7ABFE524606460F465B462046E0
:105360002946FEF779FD52465B46FEF7BFFB024633
:105370000B4630463946FEF7B7FB22462B46FEF772
:10538000B3FB02460B4600204549FEF7ADFB0B463A
:1053900000991944B1F5801F0246C0F26981104698
:1053A00053EC192BFEF758FDCDE900011EE4BBF1CB
:1053B000000FFFF695AC9FED327B8DED007B15E481
:1053C000DFF8E4C021F00043634540F30B81354B27
:1053D0000B4403430AD132463B46FEF785FB524657
:1053E0005B46FEF7BFFF00283FF4F2AE26A3D3E9E9
:1053F000002351EC190BFEF72FFD23A3D3E9002363
:10540000FEF72AFDCDE90001FFF7F0BB9FED207B01
:10541000B0EE479AF0EE679A86E6BBF1000FCADA63
:1054200007F1004300960193FFF7E0BBAFF3008064
:10543000000000000000F0BFFE822B654715973C7E
:1054400000000000432EE63FEF39FAFE422EE63F11
:10545000396CA80C615C20BED0A4BE726937663E70
:10546000F16BD2C541BDBB3E2CDE25AF6A56113F64
:1054700093BDBE166CC1663F3E5555555555C53F4B
:10548000000000000000000059F3F8C21F6EA501E3
:10549000000000000000F03FFFFF8F40FFFF0F0003
:1054A0000000F03F00346F3FFFCB90409845FFF67F
:1054B0007EAF914B98453FF70FAC8F4B0022DDE953
:1054C0000001FEF711FB78A3D3E9002304460D4643
:1054D000FEF7C2FC76A3D3E9002382468B46204622
:1054E0002946FEF7B9FC854B8046894600222046B6
:1054F0002946FEF7B1FC02460B466FA1D1E9000137
:10550000FEF7F2FA22462B46FEF7A6FC02460B46B1
:1055100000207B49FEF7E8FA22462B4604460D465A
:1055200010461946FEF798FC02460B4620462946CF
:10553000FEF792FC62A3D3E90023FEF78DFC02463E
:105540000B4640464946FEF7CFFA8046894650460C
:10555000594642464B46FEF7C9FA002452465B467E
:1055600020460D46FEF7C0FA02460B464046494625
:10557000FEF7BAFA82468B46CAE59FED537BB0EE42
:1055800047BAF0EE67BAB0EE47CAF0EE67CA9FEDD1
:10559000507B4FF0000954EC173B1DE40020FFF74F
:1055A000F3BB554922462B460020FEF77FFDCDE98F
:1055B0000001FFF71BBB22462B4620462946FEF77B
:1055C0004BFCCDE90001FFF711BB002B42D1C1F12B
:1055D00014014AFA01F000FA01F151455AD003933F
:1055E000FFF7E0BA464A93425BDCDDE90012009126
:1055F000039122E638A3D3E9002351EC190BFEF7FF
:105600002BFC35A3D3E90023FEF726FCCDE90001EE
:10561000FFF7ECBA039B012B7FF4E8AADDE9002138
:1056200001F10043CDE90023FFF7E0BA9FED2C7BA9
:10563000B0EE47BAF0EE67BA9FED2B7BB0EE47CAEB
:10564000F0EE67CA9FED2A7B4FF4802954EC173B9C
:10565000FFF7C2BB45EC104B039200F01BFC039A12
:105660008DED000B002A7FF461AB0392FFF7F5BAD2
:10567000039843EC102B00F0BFFC51EC100B8FE6AD
:1056800000F00100C0F102010391002B3FF48AAA4F
:10569000FFF7DABA00F00100C0F102030393FFF74D
:1056A00081BA1B1596E500BF000000604715F73F63
:1056B00044DF5DF80BAE543E555555555555D53F15
:1056C000FE822B654715F73F000000000000000038
:1056D000000000000000F03F9C7500883CE4377E2D
:1056E0000000004003B8E23F06D0CF43EBFD4C3E44
:1056F000000000000000F83F0000F03F0000D03F35
:105700000000E03F2DE9F0415F4A57EC106BBA43CF
:1057100000F09880002F10EE104A3B464EDD391500
:105720005BD0C3F31303CA0743F48013A1F2FF3E17
:1057300003D45B0003EBD4736400E20F4FF0000C62
:1057400002EB43034FEA6E0E6400664616254FF4E3
:105750000012B118994202DC5B1A8E1894445B0067
:10576000013D03EBD4734FEA52024FEA4404F0D1F7
:105770002F4620204FF0004209E03ED0E10F0138D3
:105780004FEA520201EB43034FEA44043ED0B342D6
:1057900002EB0501F1DD002901EB020509DBB04652
:1057A0009B1BA14288BF03F1FF33641A174446468E
:1057B000E4E7002DF3DB06F10108F1E727F00042F2
:1057C000324336D0002F4DD13946E20A15396405EF
:1057D0001346002AF9D0D70251D400205B00DE0224
:1057E000054600F10100F9D51A4623468440C0F170
:1057F0002000C3401343491B93E7A142BED80029B0
:1058000001EB0205D5DB98460023CEE7234312D1F6
:1058100078084FEA6C0101F17F511CF0010F01F58E
:10582000001118BF40F0004001EB0E53024643EC5C
:10583000102BBDE8F0817B1C16BF781C0CF1010C0D
:105840004008E6E710EE102A10EE100A3B463946F3
:10585000FEF702FB32463B46FEF748F941EC100BDF
:10586000BDE8F08110EE102A30463946FEF73CF9CB
:1058700002460B46FEF71AFC41EC100BD9E7234613
:1058800020204FF0FF35B4E70000F07F2DE9F0470E
:1058900010EE904A34F000482DED028B15D010EE3A
:1058A000105A25F00047B7F1FF4F10EE109A06DDB1
:1058B000BDEC028BBA48BDE8F04700F045BCB8F13A
:1058C000FF4F08DDB7F17E5FF2D1B7EE000ABDEC05
:1058D000028BBDE8F087002D10EE906AC0F2F680D2
:1058E0004FF0000AB8F1FF4F00F00481B8F17E5F7D
:1058F00000F02A81B6F1804F00F03F81B6F17C5F65
:1059000000EE105A40F00381B9F1000F80F23A81A5
:1059100000F004FCB7F1FF4F00F00B81002F00F006
:105920000481B7F17E5F00F0FA804FEAD972013A44
:105930005AEA020300F02C81B8F19A4F40F35281E9
:10594000984B9F4240F35F82974B9F4200F3018147
:10595000F7EE007A30EE670ADFED946ADFED947AB5
:10596000DFED945A9FED946AB5EE007AE0EE476A57
:10597000B6EE007AA6EEC07AF0EE476A20EE007A24
:1059800027EE267A67EEC77AE0EE257AF0EE676AB0
:10599000E0EE066A16EE903A23F47F6323F00F03DD
:1059A00007EE103AA0EE467A06EE903A77EEC77A06
:1059B00026F47F6626F00F0607EE104A06EE106A00
:1059C00067EE877A37EE466A07EE106AE6EE267AC9
:1059D0000AF1FF3A5AEA020326EE877AB7EE000A86
:1059E00077EE876ABFEE006A16EE903A0CBFB0EE13
:1059F000468AB0EE408A002B23F0004240F3B98182
:105A0000B2F1864F00F3F88100F0EB81B2F17C5FD8
:105A100000F3BB810022104623F47F6323F00F03C1
:105A200006EE103ADFED656ADFED655A9FED653AE7
:105A3000DFED653A9FED652A9FED654ADFED654A2A
:105A40009FED655A36EE477AF0EE002A77EEC77A78
:105A500026EE267AA7EEA57AF7EE005AF0EE477A00
:105A6000A6EE037A67EE076AF0EE471AE6EE431AEF
:105A7000B0EE636AA6EE826A77EEE17AA6EE264A77
:105A8000E7EE277AE4EE264AA4EEA65AB0EE456A7F
:105A9000B0EE475AA6EE665AF0EE456A36EEE26A76
:105AA00027EE055AC5EE066A76EEE77A37EEC77A34
:105AB00035EEC70A10EE103A1344B3F5000FC0F2EA
:105AC000BA8100EE103A20EE080A00E7B8F1974FCD
:105AD0001ADAB8F17E5F0ADB4FEAE853C3F19603A6
:105AE00048FA03F202FA03F3434500F03D814FF018
:105AF000000AFBE6B7F17E5F3FF4E7AE2FDD002E34
